{"contracts/ShadowSwapOTC.sol":{"ShadowSwapOTC":{"abi":[{"inputs":[],"name":"InvalidExpiry","type":"error"},{"inputs":[],"name":"InvalidToken","type":"error"},{"inputs":[{"internalType":"uint256","name":"offerId","type":"uint256"},{"internalType":"address","name":"caller","type":"address"}],"name":"NotSeller","type":"error"},{"inputs":[{"internalType":"uint256","name":"offerId","type":"uint256"}],"name":"OfferExpired","type":"error"},{"inputs":[{"internalType":"uint256","name":"offerId","type":"uint256"}],"name":"OfferNotActive","type":"error"},{"inputs":[{"internalType":"uint256","name":"offerId","type":"uint256"}],"name":"OfferNotFound","type":"error"},{"anonymous":false,"inputs":[{"indexed":true,"internalType":"uint256","name":"offerId","type":"uint256"},{"indexed":true,"internalType":"address","name":"seller","type":"address"}],"name":"OfferCancelled","type":"event"},{"anonymous":false,"inputs":[{"indexed":true,"internalType":"uint256","name":"offerId","type":"uint256"},{"indexed":true,"internalType":"address","name":"seller","type":"address"},{"indexed":false,"internalType":"address","name":"sellToken","type":"address"},{"indexed":false,"internalType":"address","name":"buyToken","type":"address"},{"indexed":false,"internalType":"uint256","name":"pricePerUnit","type":"uint256"},{"indexed":false,"internalType":"uint256","name":"expiry","type":"uint256"}],"name":"OfferCreated","type":"event"},{"anonymous":false,"inputs":[{"indexed":true,"internalType":"uint256","name":"offerId","type":"uint256"},{"indexed":true,"internalType":"address","name":"buyer","type":"address"}],"name":"OfferTaken","type":"event"},{"inputs":[{"internalType":"uint256","name":"offerId","type":"uint256"}],"name":"cancelOffer","outputs":[],"stateMutability":"nonpayable","type":"function"},{"inputs":[{"internalType":"address","name":"sellToken","type":"address"},{"internalType":"address","name":"buyToken","type":"address"},{"internalType":"uint256","name":"pricePerUnit","type":"uint256"},{"internalType":"externalEuint256","name":"encAmount","type":"bytes32"},{"internalType":"bytes","name":"proof","type":"bytes"},{"internalType":"uint256","name":"expiry","type":"uint256"}],"name":"createOffer","outputs":[{"internalType":"uint256","name":"offerId","type":"uint256"}],"stateMutability":"nonpayable","type":"function"},{"inputs":[{"internalType":"uint256","name":"offerId","type":"uint256"}],"name":"getOffer","outputs":[{"internalType":"address","name":"seller","type":"address"},{"internalType":"address","name":"sellToken","type":"address"},{"internalType":"address","name":"buyToken","type":"address"},{"internalType":"uint256","name":"pricePerUnit","type":"uint256"},{"internalType":"uint256","name":"expiry","type":"uint256"},{"internalType":"bool","name":"active","type":"bool"}],"stateMutability":"view","type":"function"},{"inputs":[],"name":"getOfferCount","outputs":[{"internalType":"uint256","name":"","type":"uint256"}],"stateMutability":"view","type":"function"},{"inputs":[{"internalType":"uint256","name":"offerId","type":"uint256"},{"internalType":"externalEuint256","name":"encBuyAmount","type":"bytes32"},{"internalType":"bytes","name":"proof","type":"bytes"}],"name":"takeOffer","outputs":[],"stateMutability":"nonpayable","type":"function"},{"inputs":[{"internalType":"address","name":"","type":"address"}],"name":"tradeCount","outputs":[{"internalType":"uint256","name":"","type":"uint256"}],"stateMutability":"view","type":"function"}],"evm":{"bytecode":{"linkReferences":{},"object":"6080604052348015600f57600080fd5b50610fb08061001f6000396000f3fe608060405234801561001057600080fd5b50600436106100625760003560e01c80631b831e7d146100675780634579268a1461009a5780635193e0f2146100eb578063d048db3714610100578063ef706adf14610108578063f7aaf8d01461011b575b600080fd5b610087610075366004610d28565b60026020526000908152604090205481565b6040519081526020015b60405180910390f35b6100ad6100a8366004610d43565b61012e565b604080516001600160a01b039788168152958716602087015293909516928401929092526060830152608082015290151560a082015260c001610091565b6100fe6100f9366004610d9e565b6101b1565b005b600054610087565b6100fe610116366004610d43565b610478565b610087610129366004610df1565b61057e565b6000806000806000806000548710610161576040516307cddb9360e21b8152600481018890526024015b60405180910390fd5b505050600093845250506001602081905260409092208054928101546002820154600383015460068401546007909401546001600160a01b0396871697938716969092169450929160ff90911690565b60006101bc8561086a565b905060006101cb8585856108f4565b90506101d681610970565b6101e0813361097d565b6000806101f184600401548461098b565b915091506101fe81610970565b83546102149082906001600160a01b031661097d565b60006102206000610a32565b905061022b81610970565b6000610238848684610ab6565b905061024381610970565b61024d813361097d565b60018601546102669082906001600160a01b031661097d565b6000610273858785610ab6565b905061027e81610970565b86546102949082906001600160a01b031661097d565b60028701546102ad9082906001600160a01b031661097d565b83876004018190555060006102c6886005015484610b66565b60058a0181905591506102da905081610970565b87546102f09082906001600160a01b031661097d565b6102fa813361097d565b6002880154885460405163eb3155b560e01b81523360048201526001600160a01b0391821660248201526044810185905291169063eb3155b5906064016020604051808303816000875af1158015610356573d6000803e3d6000fd5b505050506040513d601f19601f8201168201806040525081019061037a9190610e72565b506001880154604051632df5f6bf60e11b8152336004820152602481018590526001600160a01b0390911690635bebed7e906044016020604051808303816000875af11580156103ce573d6000803e3d6000fd5b505050506040513d601f19601f820116820180604052508101906103f29190610e72565b5087546001600160a01b0316600090815260026020526040812080549161041883610e8b565b909155505033600090815260026020526040812080549161043883610e8b565b909155505060405133908d907f4590bb700c0e55964e785d367a632878b699694db2b69ca69e270afa37b8e37290600090a3505050505050505050505050565b60006104838261086a565b80549091506001600160a01b031633146104b957604051634a1233a960e01b815260048101839052336024820152604401610158565b60078101805460ff1916905560048101546104d4813361097d565b6001820154604051632df5f6bf60e11b8152336004820152602481018390526001600160a01b0390911690635bebed7e906044016020604051808303816000875af1158015610527573d6000803e3d6000fd5b505050506040513d601f19601f8201168201806040525081019061054b9190610e72565b50604051339084907f1f51377b3e685a0e2419f9bb4ba7c07ec54936353ba3d0fb3c6538dab676622290600090a3505050565b60006001600160a01b038816158061059d57506001600160a01b038716155b156105bb5760405163c1ab6dc160e01b815260040160405180910390fd5b4282116105da5760405162d36c8560e81b815260040160405180910390fd5b60006105e78686866108f4565b90506105f281610970565b6105fc813361097d565b610606818a61097d565b60405163eb3155b560e01b8152336004820152306024820152604481018290526001600160a01b038a169063eb3155b5906064016020604051808303816000875af1158015610659573d6000803e3d6000fd5b505050506040513d601f19601f8201168201806040525081019061067d9190610e72565b50600061068a6000610a32565b905061069581610970565b61069f813361097d565b6000805490806106ae83610e8b565b919050559250604051806101000160405280336001600160a01b031681526020018b6001600160a01b031681526020018a6001600160a01b03168152602001898152602001838152602001828152602001858152602001600115158152506001600085815260200190815260200160002060008201518160000160006101000a8154816001600160a01b0302191690836001600160a01b0316021790555060208201518160010160006101000a8154816001600160a01b0302191690836001600160a01b0316021790555060408201518160020160006101000a8154816001600160a01b0302191690836001600160a01b03160217905550606082015181600301556080820151816004015560a0820151816005015560c0820151816006015560e08201518160070160006101000a81548160ff021916908315150217905550905050336001600160a01b0316837feeca584035fa6628470e94bb28249556557da8e404821d3ea0bb40a1eec57c308c8c8c8960405161085594939291906001600160a01b0394851681529290931660208301526040820152606081019190915260800190565b60405180910390a35050979650505050505050565b600080548210610890576040516307cddb9360e21b815260048101839052602401610158565b506000818152600160205260409020600781015460ff166108c757604051630e3dde1b60e11b815260048101839052602401610158565b80600601544211156108ef576040516348e57f5f60e01b815260048101839052602401610158565b919050565b6000836108ff610b8d565b6001600160a01b031663d0571e428233878760236040518663ffffffff1660e01b8152600401610933959493929190610eea565b600060405180830381600087803b15801561094d57600080fd5b505af1158015610961573d6000803e3d6000fd5b509293505050505b9392505050565b61097a8130610b9c565b50565b6109878282610b9c565b5050565b600080600080610999610b8d565b6001600160a01b03166386fc3bc36109b2886023610c24565b6109bd886023610c24565b6040516001600160e01b031960e085901b1681526004810192909252602482015260440160408051808303816000875af11580156109ff573d6000803e3d6000fd5b505050506040513d601f19601f82011682018060405250810190610a239190610f42565b909450925050505b9250929050565b6000610a3c610b8d565b60405163d56497c360e01b81526001600160a01b03919091169063d56497c390610a6d908590602390600401610f66565b6020604051808303816000875af1158015610a8c573d6000803e3d6000fd5b505050506040513d601f19601f82011682018060405250810190610ab09190610e72565b92915050565b6000610ac0610b8d565b6001600160a01b031663973ab10b610ad9866000610c24565b610ae4866023610c24565b610aef866023610c24565b6040516001600160e01b031960e086901b1681526004810193909352602483019190915260448201526064016020604051808303816000875af1158015610b3a573d6000803e3d6000fd5b505050506040513d601f19601f82011682018060405250810190610b5e9190610e72565b949350505050565b600080600080610b74610b8d565b6001600160a01b031663f30c42606109b2886023610c24565b6000610b97610c3b565b905090565b610bb08260061a60f81b600160f81b161590565b61098757610bbc610b8d565b604051635ca4b5b160e11b8152600481018490526001600160a01b038381166024830152919091169063b9496b6290604401600060405180830381600087803b158015610c0857600080fd5b505af1158015610c1c573d6000803e3d6000fd5b505050505050565b60008215610c325782610969565b61096982610cd2565b60004661a4b103610c4c5750600090565b4662066eee03610c6f575073d464b198f06756a1d00be223634b85e0a731c22990565b46617a6903610c9157507339847aeba923cc7367d4684194091d022b3f854890565b60405162461bcd60e51b81526020600482015260166024820152752737bc1d102ab739bab83837b93a32b21031b430b4b760511b6044820152606401610158565b60006028826063811115610ce857610ce8610eb2565b60f81b6001600160f81b031916901c60084660e01b6001600160e01b031916901c179050919050565b80356001600160a01b03811681146108ef57600080fd5b600060208284031215610d3a57600080fd5b61096982610d11565b600060208284031215610d5557600080fd5b5035919050565b60008083601f840112610d6e57600080fd5b50813567ffffffffffffffff811115610d8657600080fd5b602083019150836020828501011115610a2b57600080fd5b60008060008060608587031215610db457600080fd5b8435935060208501359250604085013567ffffffffffffffff811115610dd957600080fd5b610de587828801610d5c565b95989497509550505050565b600080600080600080600060c0888a031215610e0c57600080fd5b610e1588610d11565b9650610e2360208901610d11565b95506040880135945060608801359350608088013567ffffffffffffffff811115610e4d57600080fd5b610e598a828b01610d5c565b989b979a5095989497959660a090950135949350505050565b600060208284031215610e8457600080fd5b5051919050565b600060018201610eab57634e487b7160e01b600052601160045260246000fd5b5060010190565b634e487b7160e01b600052602160045260246000fd5b60648110610ee657634e487b7160e01b600052602160045260246000fd5b9052565b8581526001600160a01b03851660208201526080604082018190528101839052828460a0830137600060a08483010152600060a0601f19601f8601168301019050610f386060830184610ec8565b9695505050505050565b60008060408385031215610f5557600080fd5b505080516020909101519092909150565b828152604081016109696020830184610ec856fea26469706673582212207a82934f1175ec20ac53cd2eae78dcf1addfb902e8821dff37780e9cca6cccd764736f6c634300081c0033","opcodes":"PUSH1 0x80 PUSH1 0x40 MSTORE CALLVALUE DUP1 ISZERO PUSH1 0xF JUMPI PUSH1 0x0 DUP1 REVERT JUMPDEST POP PUSH2 0xFB0 DUP1 PUSH2 0x1F PUSH1 0x0 CODECOPY PUSH1 0x0 RETURN INVALID PUSH1 0x80 PUSH1 0x40 MSTORE CALLVALUE DUP1 ISZERO PUSH2 0x10 JUMPI PUSH1 0x0 DUP1 REVERT JUMPDEST POP PUSH1 0x4 CALLDATASIZE LT PUSH2 0x62 JUMPI PUSH1 0x0 CALLDATALOAD PUSH1 0xE0 SHR DUP1 PUSH4 0x1B831E7D EQ PUSH2 0x67 JUMPI DUP1 PUSH4 0x4579268A EQ PUSH2 0x9A JUMPI DUP1 PUSH4 0x5193E0F2 EQ PUSH2 0xEB JUMPI DUP1 PUSH4 0xD048DB37 EQ PUSH2 0x100 JUMPI DUP1 PUSH4 0xEF706ADF EQ PUSH2 0x108 JUMPI DUP1 PUSH4 0xF7AAF8D0 EQ PUSH2 0x11B JUMPI JUMPDEST PUSH1 0x0 DUP1 REVERT JUMPDEST PUSH2 0x87 PUSH2 0x75 CALLDATASIZE PUSH1 0x4 PUSH2 0xD28 JUMP JUMPDEST PUSH1 0x2 PUSH1 0x20 MSTORE PUSH1 0x0 SWAP1 DUP2 MSTORE PUSH1 0x40 SWAP1 KECCAK256 SLOAD DUP2 JUMP JUMPDEST PUSH1 0x40 MLOAD SWAP1 DUP2 MSTORE PUSH1 0x20 ADD JUMPDEST PUSH1 0x40 MLOAD DUP1 SWAP2 SUB SWAP1 RETURN JUMPDEST PUSH2 0xAD PUSH2 0xA8 CALLDATASIZE PUSH1 0x4 PUSH2 0xD43 JUMP JUMPDEST PUSH2 0x12E JUMP JUMPDEST PUSH1 0x40 DUP1 MLOAD PUSH1 0x1 PUSH1 0x1 PUSH1 0xA0 SHL SUB SWAP8 DUP9 AND DUP2 MSTORE SWAP6 DUP8 AND PUSH1 0x20 DUP8 ADD MSTORE SWAP4 SWAP1 SWAP6 AND SWAP3 DUP5 ADD SWAP3 SWAP1 SWAP3 MSTORE PUSH1 0x60 DUP4 ADD MSTORE PUSH1 0x80 DUP3 ADD MSTORE SWAP1 ISZERO ISZERO PUSH1 0xA0 DUP3 ADD MSTORE PUSH1 0xC0 ADD PUSH2 0x91 JUMP JUMPDEST PUSH2 0xFE PUSH2 0xF9 CALLDATASIZE PUSH1 0x4 PUSH2 0xD9E JUMP JUMPDEST PUSH2 0x1B1 JUMP JUMPDEST STOP JUMPDEST PUSH1 0x0 SLOAD PUSH2 0x87 JUMP JUMPDEST PUSH2 0xFE PUSH2 0x116 CALLDATASIZE PUSH1 0x4 PUSH2 0xD43 JUMP JUMPDEST PUSH2 0x478 JUMP JUMPDEST PUSH2 0x87 PUSH2 0x129 CALLDATASIZE PUSH1 0x4 PUSH2 0xDF1 JUMP JUMPDEST PUSH2 0x57E JUMP JUMPDEST PUSH1 0x0 DUP1 PUSH1 0x0 DUP1 PUSH1 0x0 DUP1 PUSH1 0x0 SLOAD DUP8 LT PUSH2 0x161 JUMPI PUSH1 0x40 MLOAD PUSH4 0x7CDDB93 PUSH1 0xE2 SHL DUP2 MSTORE PUSH1 0x4 DUP2 ADD DUP9 SWAP1 MSTORE PUSH1 0x24 ADD JUMPDEST PUSH1 0x40 MLOAD DUP1 SWAP2 SUB SWAP1 REVERT JUMPDEST POP POP POP PUSH1 0x0 SWAP4 DUP5 MSTORE POP POP PUSH1 0x1 PUSH1 0x20 DUP2 SWAP1 MSTORE PUSH1 0x40 SWAP1 SWAP3 KECCAK256 DUP1 SLOAD SWAP3 DUP2 ADD SLOAD PUSH1 0x2 DUP3 ADD SLOAD PUSH1 0x3 DUP4 ADD SLOAD PUSH1 0x6 DUP5 ADD SLOAD PUSH1 0x7 SWAP1 SWAP5 ADD SLOAD PUSH1 0x1 PUSH1 0x1 PUSH1 0xA0 SHL SUB SWAP7 DUP8 AND SWAP8 SWAP4 DUP8 AND SWAP7 SWAP1 SWAP3 AND SWAP5 POP SWAP3 SWAP2 PUSH1 0xFF SWAP1 SWAP2 AND SWAP1 JUMP JUMPDEST PUSH1 0x0 PUSH2 0x1BC DUP6 PUSH2 0x86A JUMP JUMPDEST SWAP1 POP PUSH1 0x0 PUSH2 0x1CB DUP6 DUP6 DUP6 PUSH2 0x8F4 JUMP JUMPDEST SWAP1 POP PUSH2 0x1D6 DUP2 PUSH2 0x970 JUMP JUMPDEST PUSH2 0x1E0 DUP2 CALLER PUSH2 0x97D JUMP JUMPDEST PUSH1 0x0 DUP1 PUSH2 0x1F1 DUP5 PUSH1 0x4 ADD SLOAD DUP5 PUSH2 0x98B JUMP JUMPDEST SWAP2 POP SWAP2 POP PUSH2 0x1FE DUP2 PUSH2 0x970 JUMP JUMPDEST DUP4 SLOAD PUSH2 0x214 SWAP1 DUP3 SWAP1 PUSH1 0x1 PUSH1 0x1 PUSH1 0xA0 SHL SUB AND PUSH2 0x97D JUMP JUMPDEST PUSH1 0x0 PUSH2 0x220 PUSH1 0x0 PUSH2 0xA32 JUMP JUMPDEST SWAP1 POP PUSH2 0x22B DUP2 PUSH2 0x970 JUMP JUMPDEST PUSH1 0x0 PUSH2 0x238 DUP5 DUP7 DUP5 PUSH2 0xAB6 JUMP JUMPDEST SWAP1 POP PUSH2 0x243 DUP2 PUSH2 0x970 JUMP JUMPDEST PUSH2 0x24D DUP2 CALLER PUSH2 0x97D JUMP JUMPDEST PUSH1 0x1 DUP7 ADD SLOAD PUSH2 0x266 SWAP1 DUP3 SWAP1 PUSH1 0x1 PUSH1 0x1 PUSH1 0xA0 SHL SUB AND PUSH2 0x97D JUMP JUMPDEST PUSH1 0x0 PUSH2 0x273 DUP6 DUP8 DUP6 PUSH2 0xAB6 JUMP JUMPDEST SWAP1 POP PUSH2 0x27E DUP2 PUSH2 0x970 JUMP JUMPDEST DUP7 SLOAD PUSH2 0x294 SWAP1 DUP3 SWAP1 PUSH1 0x1 PUSH1 0x1 PUSH1 0xA0 SHL SUB AND PUSH2 0x97D JUMP JUMPDEST PUSH1 0x2 DUP8 ADD SLOAD PUSH2 0x2AD SWAP1 DUP3 SWAP1 PUSH1 0x1 PUSH1 0x1 PUSH1 0xA0 SHL SUB AND PUSH2 0x97D JUMP JUMPDEST DUP4 DUP8 PUSH1 0x4 ADD DUP2 SWAP1 SSTORE POP PUSH1 0x0 PUSH2 0x2C6 DUP9 PUSH1 0x5 ADD SLOAD DUP5 PUSH2 0xB66 JUMP JUMPDEST PUSH1 0x5 DUP11 ADD DUP2 SWAP1 SSTORE SWAP2 POP PUSH2 0x2DA SWAP1 POP DUP2 PUSH2 0x970 JUMP JUMPDEST DUP8 SLOAD PUSH2 0x2F0 SWAP1 DUP3 SWAP1 PUSH1 0x1 PUSH1 0x1 PUSH1 0xA0 SHL SUB AND PUSH2 0x97D JUMP JUMPDEST PUSH2 0x2FA DUP2 CALLER PUSH2 0x97D JUMP JUMPDEST PUSH1 0x2 DUP9 ADD SLOAD DUP9 SLOAD PUSH1 0x40 MLOAD PUSH4 0xEB3155B5 PUSH1 0xE0 SHL DUP2 MSTORE CALLER PUSH1 0x4 DUP3 ADD MSTORE PUSH1 0x1 PUSH1 0x1 PUSH1 0xA0 SHL SUB SWAP2 DUP3 AND PUSH1 0x24 DUP3 ADD MSTORE PUSH1 0x44 DUP2 ADD DUP6 SWAP1 MSTORE SWAP2 AND SWAP1 PUSH4 0xEB3155B5 SWAP1 PUSH1 0x64 ADD PUSH1 0x20 PUSH1 0x40 MLOAD DUP1 DUP4 SUB DUP2 PUSH1 0x0 DUP8 GAS CALL ISZERO DUP1 ISZERO PUSH2 0x356 JUMPI RETURNDATASIZE PUSH1 0x0 DUP1 RETURNDATACOPY RETURNDATASIZE PUSH1 0x0 REVERT JUMPDEST POP POP POP POP PUSH1 0x40 MLOAD RETURNDATASIZE PUSH1 0x1F NOT PUSH1 0x1F DUP3 ADD AND DUP3 ADD DUP1 PUSH1 0x40 MSTORE POP DUP2 ADD SWAP1 PUSH2 0x37A SWAP2 SWAP1 PUSH2 0xE72 JUMP JUMPDEST POP PUSH1 0x1 DUP9 ADD SLOAD PUSH1 0x40 MLOAD PUSH4 0x2DF5F6BF PUSH1 0xE1 SHL DUP2 MSTORE CALLER PUSH1 0x4 DUP3 ADD MSTORE PUSH1 0x24 DUP2 ADD DUP6 SWAP1 MSTORE PUSH1 0x1 PUSH1 0x1 PUSH1 0xA0 SHL SUB SWAP1 SWAP2 AND SWAP1 PUSH4 0x5BEBED7E SWAP1 PUSH1 0x44 ADD PUSH1 0x20 PUSH1 0x40 MLOAD DUP1 DUP4 SUB DUP2 PUSH1 0x0 DUP8 GAS CALL ISZERO DUP1 ISZERO PUSH2 0x3CE JUMPI RETURNDATASIZE PUSH1 0x0 DUP1 RETURNDATACOPY RETURNDATASIZE PUSH1 0x0 REVERT JUMPDEST POP POP POP POP PUSH1 0x40 MLOAD RETURNDATASIZE PUSH1 0x1F NOT PUSH1 0x1F DUP3 ADD AND DUP3 ADD DUP1 PUSH1 0x40 MSTORE POP DUP2 ADD SWAP1 PUSH2 0x3F2 SWAP2 SWAP1 PUSH2 0xE72 JUMP JUMPDEST POP DUP8 SLOAD PUSH1 0x1 PUSH1 0x1 PUSH1 0xA0 SHL SUB AND PUSH1 0x0 SWAP1 DUP2 MSTORE PUSH1 0x2 PUSH1 0x20 MSTORE PUSH1 0x40 DUP2 KECCAK256 DUP1 SLOAD SWAP2 PUSH2 0x418 DUP4 PUSH2 0xE8B JUMP JUMPDEST SWAP1 SWAP2 SSTORE POP POP CALLER PUSH1 0x0 SWAP1 DUP2 MSTORE PUSH1 0x2 PUSH1 0x20 MSTORE PUSH1 0x40 DUP2 KECCAK256 DUP1 SLOAD SWAP2 PUSH2 0x438 DUP4 PUSH2 0xE8B JUMP JUMPDEST SWAP1 SWAP2 SSTORE POP POP PUSH1 0x40 MLOAD CALLER SWAP1 DUP14 SWAP1 PUSH32 0x4590BB700C0E55964E785D367A632878B699694DB2B69CA69E270AFA37B8E372 SWAP1 PUSH1 0x0 SWAP1 LOG3 POP POP POP POP POP POP POP POP POP POP POP POP JUMP JUMPDEST PUSH1 0x0 PUSH2 0x483 DUP3 PUSH2 0x86A JUMP JUMPDEST DUP1 SLOAD SWAP1 SWAP2 POP PUSH1 0x1 PUSH1 0x1 PUSH1 0xA0 SHL SUB AND CALLER EQ PUSH2 0x4B9 JUMPI PUSH1 0x40 MLOAD PUSH4 0x4A1233A9 PUSH1 0xE0 SHL DUP2 MSTORE PUSH1 0x4 DUP2 ADD DUP4 SWAP1 MSTORE CALLER PUSH1 0x24 DUP3 ADD MSTORE PUSH1 0x44 ADD PUSH2 0x158 JUMP JUMPDEST PUSH1 0x7 DUP2 ADD DUP1 SLOAD PUSH1 0xFF NOT AND SWAP1 SSTORE PUSH1 0x4 DUP2 ADD SLOAD PUSH2 0x4D4 DUP2 CALLER PUSH2 0x97D JUMP JUMPDEST PUSH1 0x1 DUP3 ADD SLOAD PUSH1 0x40 MLOAD PUSH4 0x2DF5F6BF PUSH1 0xE1 SHL DUP2 MSTORE CALLER PUSH1 0x4 DUP3 ADD MSTORE PUSH1 0x24 DUP2 ADD DUP4 SWAP1 MSTORE PUSH1 0x1 PUSH1 0x1 PUSH1 0xA0 SHL SUB SWAP1 SWAP2 AND SWAP1 PUSH4 0x5BEBED7E SWAP1 PUSH1 0x44 ADD PUSH1 0x20 PUSH1 0x40 MLOAD DUP1 DUP4 SUB DUP2 PUSH1 0x0 DUP8 GAS CALL ISZERO DUP1 ISZERO PUSH2 0x527 JUMPI RETURNDATASIZE PUSH1 0x0 DUP1 RETURNDATACOPY RETURNDATASIZE PUSH1 0x0 REVERT JUMPDEST POP POP POP POP PUSH1 0x40 MLOAD RETURNDATASIZE PUSH1 0x1F NOT PUSH1 0x1F DUP3 ADD AND DUP3 ADD DUP1 PUSH1 0x40 MSTORE POP DUP2 ADD SWAP1 PUSH2 0x54B SWAP2 SWAP1 PUSH2 0xE72 JUMP JUMPDEST POP PUSH1 0x40 MLOAD CALLER SWAP1 DUP5 SWAP1 PUSH32 0x1F51377B3E685A0E2419F9BB4BA7C07EC54936353BA3D0FB3C6538DAB6766222 SWAP1 PUSH1 0x0 SWAP1 LOG3 POP POP POP JUMP JUMPDEST PUSH1 0x0 PUSH1 0x1 PUSH1 0x1 PUSH1 0xA0 SHL SUB DUP9 AND ISZERO DUP1 PUSH2 0x59D JUMPI POP PUSH1 0x1 PUSH1 0x1 PUSH1 0xA0 SHL SUB DUP8 AND ISZERO JUMPDEST ISZERO PUSH2 0x5BB JUMPI PUSH1 0x40 MLOAD PUSH4 0xC1AB6DC1 PUSH1 0xE0 SHL DUP2 MSTORE PUSH1 0x4 ADD PUSH1 0x40 MLOAD DUP1 SWAP2 SUB SWAP1 REVERT JUMPDEST TIMESTAMP DUP3 GT PUSH2 0x5DA JUMPI PUSH1 0x40 MLOAD PUSH3 0xD36C85 PUSH1 0xE8 SHL DUP2 MSTORE PUSH1 0x4 ADD PUSH1 0x40 MLOAD DUP1 SWAP2 SUB SWAP1 REVERT JUMPDEST PUSH1 0x0 PUSH2 0x5E7 DUP7 DUP7 DUP7 PUSH2 0x8F4 JUMP JUMPDEST SWAP1 POP PUSH2 0x5F2 DUP2 PUSH2 0x970 JUMP JUMPDEST PUSH2 0x5FC DUP2 CALLER PUSH2 0x97D JUMP JUMPDEST PUSH2 0x606 DUP2 DUP11 PUSH2 0x97D JUMP JUMPDEST PUSH1 0x40 MLOAD PUSH4 0xEB3155B5 PUSH1 0xE0 SHL DUP2 MSTORE CALLER PUSH1 0x4 DUP3 ADD MSTORE ADDRESS PUSH1 0x24 DUP3 ADD MSTORE PUSH1 0x44 DUP2 ADD DUP3 SWAP1 MSTORE PUSH1 0x1 PUSH1 0x1 PUSH1 0xA0 SHL SUB DUP11 AND SWAP1 PUSH4 0xEB3155B5 SWAP1 PUSH1 0x64 ADD PUSH1 0x20 PUSH1 0x40 MLOAD DUP1 DUP4 SUB DUP2 PUSH1 0x0 DUP8 GAS CALL ISZERO DUP1 ISZERO PUSH2 0x659 JUMPI RETURNDATASIZE PUSH1 0x0 DUP1 RETURNDATACOPY RETURNDATASIZE PUSH1 0x0 REVERT JUMPDEST POP POP POP POP PUSH1 0x40 MLOAD RETURNDATASIZE PUSH1 0x1F NOT PUSH1 0x1F DUP3 ADD AND DUP3 ADD DUP1 PUSH1 0x40 MSTORE POP DUP2 ADD SWAP1 PUSH2 0x67D SWAP2 SWAP1 PUSH2 0xE72 JUMP JUMPDEST POP PUSH1 0x0 PUSH2 0x68A PUSH1 0x0 PUSH2 0xA32 JUMP JUMPDEST SWAP1 POP PUSH2 0x695 DUP2 PUSH2 0x970 JUMP JUMPDEST PUSH2 0x69F DUP2 CALLER PUSH2 0x97D JUMP JUMPDEST PUSH1 0x0 DUP1 SLOAD SWAP1 DUP1 PUSH2 0x6AE DUP4 PUSH2 0xE8B JUMP JUMPDEST SWAP2 SWAP1 POP SSTORE SWAP3 POP PUSH1 0x40 MLOAD DUP1 PUSH2 0x100 ADD PUSH1 0x40 MSTORE DUP1 CALLER PUSH1 0x1 PUSH1 0x1 PUSH1 0xA0 SHL SUB AND DUP2 MSTORE PUSH1 0x20 ADD DUP12 PUSH1 0x1 PUSH1 0x1 PUSH1 0xA0 SHL SUB AND DUP2 MSTORE PUSH1 0x20 ADD DUP11 PUSH1 0x1 PUSH1 0x1 PUSH1 0xA0 SHL SUB AND DUP2 MSTORE PUSH1 0x20 ADD DUP10 DUP2 MSTORE PUSH1 0x20 ADD DUP4 DUP2 MSTORE PUSH1 0x20 ADD DUP3 DUP2 MSTORE PUSH1 0x20 ADD DUP6 DUP2 MSTORE PUSH1 0x20 ADD PUSH1 0x1 ISZERO ISZERO DUP2 MSTORE POP PUSH1 0x1 PUSH1 0x0 DUP6 DUP2 MSTORE PUSH1 0x20 ADD SWAP1 DUP2 MSTORE PUSH1 0x20 ADD PUSH1 0x0 KECCAK256 PUSH1 0x0 DUP3 ADD MLOAD DUP2 PUSH1 0x0 ADD PUSH1 0x0 PUSH2 0x100 EXP DUP2 SLOAD DUP2 PUSH1 0x1 PUSH1 0x1 PUSH1 0xA0 SHL SUB MUL NOT AND SWAP1 DUP4 PUSH1 0x1 PUSH1 0x1 PUSH1 0xA0 SHL SUB AND MUL OR SWAP1 SSTORE POP PUSH1 0x20 DUP3 ADD MLOAD DUP2 PUSH1 0x1 ADD PUSH1 0x0 PUSH2 0x100 EXP DUP2 SLOAD DUP2 PUSH1 0x1 PUSH1 0x1 PUSH1 0xA0 SHL SUB MUL NOT AND SWAP1 DUP4 PUSH1 0x1 PUSH1 0x1 PUSH1 0xA0 SHL SUB AND MUL OR SWAP1 SSTORE POP PUSH1 0x40 DUP3 ADD MLOAD DUP2 PUSH1 0x2 ADD PUSH1 0x0 PUSH2 0x100 EXP DUP2 SLOAD DUP2 PUSH1 0x1 PUSH1 0x1 PUSH1 0xA0 SHL SUB MUL NOT AND SWAP1 DUP4 PUSH1 0x1 PUSH1 0x1 PUSH1 0xA0 SHL SUB AND MUL OR SWAP1 SSTORE POP PUSH1 0x60 DUP3 ADD MLOAD DUP2 PUSH1 0x3 ADD SSTORE PUSH1 0x80 DUP3 ADD MLOAD DUP2 PUSH1 0x4 ADD SSTORE PUSH1 0xA0 DUP3 ADD MLOAD DUP2 PUSH1 0x5 ADD SSTORE PUSH1 0xC0 DUP3 ADD MLOAD DUP2 PUSH1 0x6 ADD SSTORE PUSH1 0xE0 DUP3 ADD MLOAD DUP2 PUSH1 0x7 ADD PUSH1 0x0 PUSH2 0x100 EXP DUP2 SLOAD DUP2 PUSH1 0xFF MUL NOT AND SWAP1 DUP4 ISZERO ISZERO MUL OR SWAP1 SSTORE POP SWAP1 POP POP CALLER PUSH1 0x1 PUSH1 0x1 PUSH1 0xA0 SHL SUB AND DUP4 PUSH32 0xEECA584035FA6628470E94BB28249556557DA8E404821D3EA0BB40A1EEC57C30 DUP13 DUP13 DUP13 DUP10 PUSH1 0x40 MLOAD PUSH2 0x855 SWAP5 SWAP4 SWAP3 SWAP2 SWAP1 PUSH1 0x1 PUSH1 0x1 PUSH1 0xA0 SHL SUB SWAP5 DUP6 AND DUP2 MSTORE SWAP3 SWAP1 SWAP4 AND PUSH1 0x20 DUP4 ADD MSTORE PUSH1 0x40 DUP3 ADD MSTORE PUSH1 0x60 DUP2 ADD SWAP2 SWAP1 SWAP2 MSTORE PUSH1 0x80 ADD SWAP1 JUMP JUMPDEST PUSH1 0x40 MLOAD DUP1 SWAP2 SUB SWAP1 LOG3 POP POP SWAP8 SWAP7 POP POP POP POP POP POP POP JUMP JUMPDEST PUSH1 0x0 DUP1 SLOAD DUP3 LT PUSH2 0x890 JUMPI PUSH1 0x40 MLOAD PUSH4 0x7CDDB93 PUSH1 0xE2 SHL DUP2 MSTORE PUSH1 0x4 DUP2 ADD DUP4 SWAP1 MSTORE PUSH1 0x24 ADD PUSH2 0x158 JUMP JUMPDEST POP PUSH1 0x0 DUP2 DUP2 MSTORE PUSH1 0x1 PUSH1 0x20 MSTORE PUSH1 0x40 SWAP1 KECCAK256 PUSH1 0x7 DUP2 ADD SLOAD PUSH1 0xFF AND PUSH2 0x8C7 JUMPI PUSH1 0x40 MLOAD PUSH4 0xE3DDE1B PUSH1 0xE1 SHL DUP2 MSTORE PUSH1 0x4 DUP2 ADD DUP4 SWAP1 MSTORE PUSH1 0x24 ADD PUSH2 0x158 JUMP JUMPDEST DUP1 PUSH1 0x6 ADD SLOAD TIMESTAMP GT ISZERO PUSH2 0x8EF JUMPI PUSH1 0x40 MLOAD PUSH4 0x48E57F5F PUSH1 0xE0 SHL DUP2 MSTORE PUSH1 0x4 DUP2 ADD DUP4 SWAP1 MSTORE PUSH1 0x24 ADD PUSH2 0x158 JUMP JUMPDEST SWAP2 SWAP1 POP JUMP JUMPDEST PUSH1 0x0 DUP4 PUSH2 0x8FF PUSH2 0xB8D JUMP JUMPDEST PUSH1 0x1 PUSH1 0x1 PUSH1 0xA0 SHL SUB AND PUSH4 0xD0571E42 DUP3 CALLER DUP8 DUP8 PUSH1 0x23 PUSH1 0x40 MLOAD DUP7 PUSH4 0xFFFFFFFF AND PUSH1 0xE0 SHL DUP2 MSTORE PUSH1 0x4 ADD PUSH2 0x933 SWAP6 SWAP5 SWAP4 SWAP3 SWAP2 SWAP1 PUSH2 0xEEA JUMP JUMPDEST PUSH1 0x0 PUSH1 0x40 MLOAD DUP1 DUP4 SUB DUP2 PUSH1 0x0 DUP8 DUP1 EXTCODESIZE ISZERO DUP1 ISZERO PUSH2 0x94D JUMPI PUSH1 0x0 DUP1 REVERT JUMPDEST POP GAS CALL ISZERO DUP1 ISZERO PUSH2 0x961 JUMPI RETURNDATASIZE PUSH1 0x0 DUP1 RETURNDATACOPY RETURNDATASIZE PUSH1 0x0 REVERT JUMPDEST POP SWAP3 SWAP4 POP POP POP POP JUMPDEST SWAP4 SWAP3 POP POP POP JUMP JUMPDEST PUSH2 0x97A DUP2 ADDRESS PUSH2 0xB9C JUMP JUMPDEST POP JUMP JUMPDEST PUSH2 0x987 DUP3 DUP3 PUSH2 0xB9C JUMP JUMPDEST POP POP JUMP JUMPDEST PUSH1 0x0 DUP1 PUSH1 0x0 DUP1 PUSH2 0x999 PUSH2 0xB8D JUMP JUMPDEST PUSH1 0x1 PUSH1 0x1 PUSH1 0xA0 SHL SUB AND PUSH4 0x86FC3BC3 PUSH2 0x9B2 DUP9 PUSH1 0x23 PUSH2 0xC24 JUMP JUMPDEST PUSH2 0x9BD DUP9 PUSH1 0x23 PUSH2 0xC24 JUMP JUMPDEST PUSH1 0x40 MLOAD PUSH1 0x1 PUSH1 0x1 PUSH1 0xE0 SHL SUB NOT PUSH1 0xE0 DUP6 SWAP1 SHL AND DUP2 MSTORE PUSH1 0x4 DUP2 ADD SWAP3 SWAP1 SWAP3 MSTORE PUSH1 0x24 DUP3 ADD MSTORE PUSH1 0x44 ADD PUSH1 0x40 DUP1 MLOAD DUP1 DUP4 SUB DUP2 PUSH1 0x0 DUP8 GAS CALL ISZERO DUP1 ISZERO PUSH2 0x9FF JUMPI RETURNDATASIZE PUSH1 0x0 DUP1 RETURNDATACOPY RETURNDATASIZE PUSH1 0x0 REVERT JUMPDEST POP POP POP POP PUSH1 0x40 MLOAD RETURNDATASIZE PUSH1 0x1F NOT PUSH1 0x1F DUP3 ADD AND DUP3 ADD DUP1 PUSH1 0x40 MSTORE POP DUP2 ADD SWAP1 PUSH2 0xA23 SWAP2 SWAP1 PUSH2 0xF42 JUMP JUMPDEST SWAP1 SWAP5 POP SWAP3 POP POP POP JUMPDEST SWAP3 POP SWAP3 SWAP1 POP JUMP JUMPDEST PUSH1 0x0 PUSH2 0xA3C PUSH2 0xB8D JUMP JUMPDEST PUSH1 0x40 MLOAD PUSH4 0xD56497C3 PUSH1 0xE0 SHL DUP2 MSTORE PUSH1 0x1 PUSH1 0x1 PUSH1 0xA0 SHL SUB SWAP2 SWAP1 SWAP2 AND SWAP1 PUSH4 0xD56497C3 SWAP1 PUSH2 0xA6D SWAP1 DUP6 SWAP1 PUSH1 0x23 SWAP1 PUSH1 0x4 ADD PUSH2 0xF66 JUMP JUMPDEST PUSH1 0x20 PUSH1 0x40 MLOAD DUP1 DUP4 SUB DUP2 PUSH1 0x0 DUP8 GAS CALL ISZERO DUP1 ISZERO PUSH2 0xA8C JUMPI RETURNDATASIZE PUSH1 0x0 DUP1 RETURNDATACOPY RETURNDATASIZE PUSH1 0x0 REVERT JUMPDEST POP POP POP POP PUSH1 0x40 MLOAD RETURNDATASIZE PUSH1 0x1F NOT PUSH1 0x1F DUP3 ADD AND DUP3 ADD DUP1 PUSH1 0x40 MSTORE POP DUP2 ADD SWAP1 PUSH2 0xAB0 SWAP2 SWAP1 PUSH2 0xE72 JUMP JUMPDEST SWAP3 SWAP2 POP POP JUMP JUMPDEST PUSH1 0x0 PUSH2 0xAC0 PUSH2 0xB8D JUMP JUMPDEST PUSH1 0x1 PUSH1 0x1 PUSH1 0xA0 SHL SUB AND PUSH4 0x973AB10B PUSH2 0xAD9 DUP7 PUSH1 0x0 PUSH2 0xC24 JUMP JUMPDEST PUSH2 0xAE4 DUP7 PUSH1 0x23 PUSH2 0xC24 JUMP JUMPDEST PUSH2 0xAEF DUP7 PUSH1 0x23 PUSH2 0xC24 JUMP JUMPDEST PUSH1 0x40 MLOAD PUSH1 0x1 PUSH1 0x1 PUSH1 0xE0 SHL SUB NOT PUSH1 0xE0 DUP7 SWAP1 SHL AND DUP2 MSTORE PUSH1 0x4 DUP2 ADD SWAP4 SWAP1 SWAP4 MSTORE PUSH1 0x24 DUP4 ADD SWAP2 SWAP1 SWAP2 MSTORE PUSH1 0x44 DUP3 ADD MSTORE PUSH1 0x64 ADD PUSH1 0x20 PUSH1 0x40 MLOAD DUP1 DUP4 SUB DUP2 PUSH1 0x0 DUP8 GAS CALL ISZERO DUP1 ISZERO PUSH2 0xB3A JUMPI RETURNDATASIZE PUSH1 0x0 DUP1 RETURNDATACOPY RETURNDATASIZE PUSH1 0x0 REVERT JUMPDEST POP POP POP POP PUSH1 0x40 MLOAD RETURNDATASIZE PUSH1 0x1F NOT PUSH1 0x1F DUP3 ADD AND DUP3 ADD DUP1 PUSH1 0x40 MSTORE POP DUP2 ADD SWAP1 PUSH2 0xB5E SWAP2 SWAP1 PUSH2 0xE72 JUMP JUMPDEST SWAP5 SWAP4 POP POP POP POP JUMP JUMPDEST PUSH1 0x0 DUP1 PUSH1 0x0 DUP1 PUSH2 0xB74 PUSH2 0xB8D JUMP JUMPDEST PUSH1 0x1 PUSH1 0x1 PUSH1 0xA0 SHL SUB AND PUSH4 0xF30C4260 PUSH2 0x9B2 DUP9 PUSH1 0x23 PUSH2 0xC24 JUMP JUMPDEST PUSH1 0x0 PUSH2 0xB97 PUSH2 0xC3B JUMP JUMPDEST SWAP1 POP SWAP1 JUMP JUMPDEST PUSH2 0xBB0 DUP3 PUSH1 0x6 BYTE PUSH1 0xF8 SHL PUSH1 0x1 PUSH1 0xF8 SHL AND ISZERO SWAP1 JUMP JUMPDEST PUSH2 0x987 JUMPI PUSH2 0xBBC PUSH2 0xB8D JUMP JUMPDEST PUSH1 0x40 MLOAD PUSH4 0x5CA4B5B1 PUSH1 0xE1 SHL DUP2 MSTORE PUSH1 0x4 DUP2 ADD DUP5 SWAP1 MSTORE PUSH1 0x1 PUSH1 0x1 PUSH1 0xA0 SHL SUB DUP4 DUP2 AND PUSH1 0x24 DUP4 ADD MSTORE SWAP2 SWAP1 SWAP2 AND SWAP1 PUSH4 0xB9496B62 SWAP1 PUSH1 0x44 ADD PUSH1 0x0 PUSH1 0x40 MLOAD DUP1 DUP4 SUB DUP2 PUSH1 0x0 DUP8 DUP1 EXTCODESIZE ISZERO DUP1 ISZERO PUSH2 0xC08 JUMPI PUSH1 0x0 DUP1 REVERT JUMPDEST POP GAS CALL ISZERO DUP1 ISZERO PUSH2 0xC1C JUMPI RETURNDATASIZE PUSH1 0x0 DUP1 RETURNDATACOPY RETURNDATASIZE PUSH1 0x0 REVERT JUMPDEST POP POP POP POP POP POP JUMP JUMPDEST PUSH1 0x0 DUP3 ISZERO PUSH2 0xC32 JUMPI DUP3 PUSH2 0x969 JUMP JUMPDEST PUSH2 0x969 DUP3 PUSH2 0xCD2 JUMP JUMPDEST PUSH1 0x0 CHAINID PUSH2 0xA4B1 SUB PUSH2 0xC4C JUMPI POP PUSH1 0x0 SWAP1 JUMP JUMPDEST CHAINID PUSH3 0x66EEE SUB PUSH2 0xC6F JUMPI POP PUSH20 0xD464B198F06756A1D00BE223634B85E0A731C229 SWAP1 JUMP JUMPDEST CHAINID PUSH2 0x7A69 SUB PUSH2 0xC91 JUMPI POP PUSH20 0x39847AEBA923CC7367D4684194091D022B3F8548 SWAP1 JUMP JUMPDEST PUSH1 0x40 MLOAD PUSH3 0x461BCD PUSH1 0xE5 SHL DUP2 MSTORE PUSH1 0x20 PUSH1 0x4 DUP3 ADD MSTORE PUSH1 0x16 PUSH1 0x24 DUP3 ADD MSTORE PUSH22 0x2737BC1D102AB739BAB83837B93A32B21031B430B4B7 PUSH1 0x51 SHL PUSH1 0x44 DUP3 ADD MSTORE PUSH1 0x64 ADD PUSH2 0x158 JUMP JUMPDEST PUSH1 0x0 PUSH1 0x28 DUP3 PUSH1 0x63 DUP2 GT ISZERO PUSH2 0xCE8 JUMPI PUSH2 0xCE8 PUSH2 0xEB2 JUMP JUMPDEST PUSH1 0xF8 SHL PUSH1 0x1 PUSH1 0x1 PUSH1 0xF8 SHL SUB NOT AND SWAP1 SHR PUSH1 0x8 CHAINID PUSH1 0xE0 SHL PUSH1 0x1 PUSH1 0x1 PUSH1 0xE0 SHL SUB NOT AND SWAP1 SHR OR SWAP1 POP SWAP2 SWAP1 POP JUMP JUMPDEST DUP1 CALLDATALOAD PUSH1 0x1 PUSH1 0x1 PUSH1 0xA0 SHL SUB DUP2 AND DUP2 EQ PUSH2 0x8EF JUMPI PUSH1 0x0 DUP1 REVERT JUMPDEST PUSH1 0x0 PUSH1 0x20 DUP3 DUP5 SUB SLT ISZERO PUSH2 0xD3A JUMPI PUSH1 0x0 DUP1 REVERT JUMPDEST PUSH2 0x969 DUP3 PUSH2 0xD11 JUMP JUMPDEST PUSH1 0x0 PUSH1 0x20 DUP3 DUP5 SUB SLT ISZERO PUSH2 0xD55 JUMPI PUSH1 0x0 DUP1 REVERT JUMPDEST POP CALLDATALOAD SWAP2 SWAP1 POP JUMP JUMPDEST PUSH1 0x0 DUP1 DUP4 PUSH1 0x1F DUP5 ADD SLT PUSH2 0xD6E JUMPI PUSH1 0x0 DUP1 REVERT JUMPDEST POP DUP2 CALLDATALOAD PUSH8 0xFFFFFFFFFFFFFFFF DUP2 GT ISZERO PUSH2 0xD86 JUMPI PUSH1 0x0 DUP1 REVERT JUMPDEST PUSH1 0x20 DUP4 ADD SWAP2 POP DUP4 PUSH1 0x20 DUP3 DUP6 ADD ADD GT ISZERO PUSH2 0xA2B JUMPI PUSH1 0x0 DUP1 REVERT JUMPDEST PUSH1 0x0 DUP1 PUSH1 0x0 DUP1 PUSH1 0x60 DUP6 DUP8 SUB SLT ISZERO PUSH2 0xDB4 JUMPI PUSH1 0x0 DUP1 REVERT JUMPDEST DUP5 CALLDATALOAD SWAP4 POP PUSH1 0x20 DUP6 ADD CALLDATALOAD SWAP3 POP PUSH1 0x40 DUP6 ADD CALLDATALOAD PUSH8 0xFFFFFFFFFFFFFFFF DUP2 GT ISZERO PUSH2 0xDD9 JUMPI PUSH1 0x0 DUP1 REVERT JUMPDEST PUSH2 0xDE5 DUP8 DUP3 DUP9 ADD PUSH2 0xD5C JUMP JUMPDEST SWAP6 SWAP9 SWAP5 SWAP8 POP SWAP6 POP POP POP POP JUMP JUMPDEST PUSH1 0x0 DUP1 PUSH1 0x0 DUP1 PUSH1 0x0 DUP1 PUSH1 0x0 PUSH1 0xC0 DUP9 DUP11 SUB SLT ISZERO PUSH2 0xE0C JUMPI PUSH1 0x0 DUP1 REVERT JUMPDEST PUSH2 0xE15 DUP9 PUSH2 0xD11 JUMP JUMPDEST SWAP7 POP PUSH2 0xE23 PUSH1 0x20 DUP10 ADD PUSH2 0xD11 JUMP JUMPDEST SWAP6 POP PUSH1 0x40 DUP9 ADD CALLDATALOAD SWAP5 POP PUSH1 0x60 DUP9 ADD CALLDATALOAD SWAP4 POP PUSH1 0x80 DUP9 ADD CALLDATALOAD PUSH8 0xFFFFFFFFFFFFFFFF DUP2 GT ISZERO PUSH2 0xE4D JUMPI PUSH1 0x0 DUP1 REVERT JUMPDEST PUSH2 0xE59 DUP11 DUP3 DUP12 ADD PUSH2 0xD5C JUMP JUMPDEST SWAP9 SWAP12 SWAP8 SWAP11 POP SWAP6 SWAP9 SWAP5 SWAP8 SWAP6 SWAP7 PUSH1 0xA0 SWAP1 SWAP6 ADD CALLDATALOAD SWAP5 SWAP4 POP POP POP POP JUMP JUMPDEST PUSH1 0x0 PUSH1 0x20 DUP3 DUP5 SUB SLT ISZERO PUSH2 0xE84 JUMPI PUSH1 0x0 DUP1 REVERT JUMPDEST POP MLOAD SWAP2 SWAP1 POP JUMP JUMPDEST PUSH1 0x0 PUSH1 0x1 DUP3 ADD PUSH2 0xEAB JUMPI PUSH4 0x4E487B71 PUSH1 0xE0 SHL PUSH1 0x0 MSTORE PUSH1 0x11 PUSH1 0x4 MSTORE PUSH1 0x24 PUSH1 0x0 REVERT JUMPDEST POP PUSH1 0x1 ADD SWAP1 JUMP JUMPDEST PUSH4 0x4E487B71 PUSH1 0xE0 SHL PUSH1 0x0 MSTORE PUSH1 0x21 PUSH1 0x4 MSTORE PUSH1 0x24 PUSH1 0x0 REVERT JUMPDEST PUSH1 0x64 DUP2 LT PUSH2 0xEE6 JUMPI PUSH4 0x4E487B71 PUSH1 0xE0 SHL PUSH1 0x0 MSTORE PUSH1 0x21 PUSH1 0x4 MSTORE PUSH1 0x24 PUSH1 0x0 REVERT JUMPDEST SWAP1 MSTORE JUMP JUMPDEST DUP6 DUP2 MSTORE PUSH1 0x1 PUSH1 0x1 PUSH1 0xA0 SHL SUB DUP6 AND PUSH1 0x20 DUP3 ADD MSTORE PUSH1 0x80 PUSH1 0x40 DUP3 ADD DUP2 SWAP1 MSTORE DUP2 ADD DUP4 SWAP1 MSTORE DUP3 DUP5 PUSH1 0xA0 DUP4 ADD CALLDATACOPY PUSH1 0x0 PUSH1 0xA0 DUP5 DUP4 ADD ADD MSTORE PUSH1 0x0 PUSH1 0xA0 PUSH1 0x1F NOT PUSH1 0x1F DUP7 ADD AND DUP4 ADD ADD SWAP1 POP PUSH2 0xF38 PUSH1 0x60 DUP4 ADD DUP5 PUSH2 0xEC8 JUMP JUMPDEST SWAP7 SWAP6 POP POP POP POP POP POP JUMP JUMPDEST PUSH1 0x0 DUP1 PUSH1 0x40 DUP4 DUP6 SUB SLT ISZERO PUSH2 0xF55 JUMPI PUSH1 0x0 DUP1 REVERT JUMPDEST POP POP DUP1 MLOAD PUSH1 0x20 SWAP1 SWAP2 ADD MLOAD SWAP1 SWAP3 SWAP1 SWAP2 POP JUMP JUMPDEST DUP3 DUP2 MSTORE PUSH1 0x40 DUP2 ADD PUSH2 0x969 PUSH1 0x20 DUP4 ADD DUP5 PUSH2 0xEC8 JUMP INVALID LOG2 PUSH5 0x6970667358 0x22 SLT KECCAK256 PUSH27 0x82934F1175EC20AC53CD2EAE78DCF1ADDFB902E8821DFF37780E9C 0xCA PUSH13 0xCCD764736F6C634300081C0033 "},"methodIdentifiers":{"cancelOffer(uint256)":"ef706adf","createOffer(address,address,uint256,bytes32,bytes,uint256)":"f7aaf8d0","getOffer(uint256)":"4579268a","getOfferCount()":"d048db37","takeOffer(uint256,bytes32,bytes)":"5193e0f2","tradeCount(address)":"1b831e7d"}}}}}