{
  "_format": "hh-sol-artifact-1",
  "contractName": "ShadowSwapOTC",
  "sourceName": "contracts/ShadowSwapOTC.sol",
  "abi": [
    {
      "inputs": [],
      "name": "InvalidExpiry",
      "type": "error"
    },
    {
      "inputs": [],
      "name": "InvalidToken",
      "type": "error"
    },
    {
      "inputs": [
        {
          "internalType": "uint256",
          "name": "offerId",
          "type": "uint256"
        },
        {
          "internalType": "address",
          "name": "caller",
          "type": "address"
        }
      ],
      "name": "NotSeller",
      "type": "error"
    },
    {
      "inputs": [
        {
          "internalType": "uint256",
          "name": "offerId",
          "type": "uint256"
        }
      ],
      "name": "OfferExpired",
      "type": "error"
    },
    {
      "inputs": [
        {
          "internalType": "uint256",
          "name": "offerId",
          "type": "uint256"
        }
      ],
      "name": "OfferNotActive",
      "type": "error"
    },
    {
      "inputs": [
        {
          "internalType": "uint256",
          "name": "offerId",
          "type": "uint256"
        }
      ],
      "name": "OfferNotFound",
      "type": "error"
    },
    {
      "anonymous": false,
      "inputs": [
        {
          "indexed": true,
          "internalType": "uint256",
          "name": "offerId",
          "type": "uint256"
        },
        {
          "indexed": true,
          "internalType": "address",
          "name": "seller",
          "type": "address"
        }
      ],
      "name": "OfferCancelled",
      "type": "event"
    },
    {
      "anonymous": false,
      "inputs": [
        {
          "indexed": true,
          "internalType": "uint256",
          "name": "offerId",
          "type": "uint256"
        },
        {
          "indexed": true,
          "internalType": "address",
          "name": "seller",
          "type": "address"
        },
        {
          "indexed": false,
          "internalType": "address",
          "name": "sellToken",
          "type": "address"
        },
        {
          "indexed": false,
          "internalType": "address",
          "name": "buyToken",
          "type": "address"
        },
        {
          "indexed": false,
          "internalType": "uint256",
          "name": "pricePerUnit",
          "type": "uint256"
        },
        {
          "indexed": false,
          "internalType": "uint256",
          "name": "expiry",
          "type": "uint256"
        }
      ],
      "name": "OfferCreated",
      "type": "event"
    },
    {
      "anonymous": false,
      "inputs": [
        {
          "indexed": true,
          "internalType": "uint256",
          "name": "offerId",
          "type": "uint256"
        },
        {
          "indexed": true,
          "internalType": "address",
          "name": "buyer",
          "type": "address"
        }
      ],
      "name": "OfferTaken",
      "type": "event"
    },
    {
      "inputs": [
        {
          "internalType": "uint256",
          "name": "offerId",
          "type": "uint256"
        }
      ],
      "name": "cancelOffer",
      "outputs": [],
      "stateMutability": "nonpayable",
      "type": "function"
    },
    {
      "inputs": [
        {
          "internalType": "address",
          "name": "sellToken",
          "type": "address"
        },
        {
          "internalType": "address",
          "name": "buyToken",
          "type": "address"
        },
        {
          "internalType": "uint256",
          "name": "pricePerUnit",
          "type": "uint256"
        },
        {
          "internalType": "externalEuint256",
          "name": "encAmount",
          "type": "bytes32"
        },
        {
          "internalType": "bytes",
          "name": "proof",
          "type": "bytes"
        },
        {
          "internalType": "uint256",
          "name": "expiry",
          "type": "uint256"
        }
      ],
      "name": "createOffer",
      "outputs": [
        {
          "internalType": "uint256",
          "name": "offerId",
          "type": "uint256"
        }
      ],
      "stateMutability": "nonpayable",
      "type": "function"
    },
    {
      "inputs": [
        {
          "internalType": "uint256",
          "name": "offerId",
          "type": "uint256"
        }
      ],
      "name": "getOffer",
      "outputs": [
        {
          "internalType": "address",
          "name": "seller",
          "type": "address"
        },
        {
          "internalType": "address",
          "name": "sellToken",
          "type": "address"
        },
        {
          "internalType": "address",
          "name": "buyToken",
          "type": "address"
        },
        {
          "internalType": "uint256",
          "name": "pricePerUnit",
          "type": "uint256"
        },
        {
          "internalType": "uint256",
          "name": "expiry",
          "type": "uint256"
        },
        {
          "internalType": "bool",
          "name": "active",
          "type": "bool"
        }
      ],
      "stateMutability": "view",
      "type": "function"
    },
    {
      "inputs": [],
      "name": "getOfferCount",
      "outputs": [
        {
          "internalType": "uint256",
          "name": "",
          "type": "uint256"
        }
      ],
      "stateMutability": "view",
      "type": "function"
    },
    {
      "inputs": [
        {
          "internalType": "uint256",
          "name": "offerId",
          "type": "uint256"
        },
        {
          "internalType": "externalEuint256",
          "name": "encBuyAmount",
          "type": "bytes32"
        },
        {
          "internalType": "bytes",
          "name": "proof",
          "type": "bytes"
        }
      ],
      "name": "takeOffer",
      "outputs": [],
      "stateMutability": "nonpayable",
      "type": "function"
    },
    {
      "inputs": [
        {
          "internalType": "address",
          "name": "",
          "type": "address"
        }
      ],
      "name": "tradeCount",
      "outputs": [
        {
          "internalType": "uint256",
          "name": "",
          "type": "uint256"
        }
      ],
      "stateMutability": "view",
      "type": "function"
    }
  ],
  "bytecode": "0x6080604052348015600f57600080fd5b50610fb08061001f6000396000f3fe608060405234801561001057600080fd5b50600436106100625760003560e01c80631b831e7d146100675780634579268a1461009a5780635193e0f2146100eb578063d048db3714610100578063ef706adf14610108578063f7aaf8d01461011b575b600080fd5b610087610075366004610d28565b60026020526000908152604090205481565b6040519081526020015b60405180910390f35b6100ad6100a8366004610d43565b61012e565b604080516001600160a01b039788168152958716602087015293909516928401929092526060830152608082015290151560a082015260c001610091565b6100fe6100f9366004610d9e565b6101b1565b005b600054610087565b6100fe610116366004610d43565b610478565b610087610129366004610df1565b61057e565b6000806000806000806000548710610161576040516307cddb9360e21b8152600481018890526024015b60405180910390fd5b505050600093845250506001602081905260409092208054928101546002820154600383015460068401546007909401546001600160a01b0396871697938716969092169450929160ff90911690565b60006101bc8561086a565b905060006101cb8585856108f4565b90506101d681610970565b6101e0813361097d565b6000806101f184600401548461098b565b915091506101fe81610970565b83546102149082906001600160a01b031661097d565b60006102206000610a32565b905061022b81610970565b6000610238848684610ab6565b905061024381610970565b61024d813361097d565b60018601546102669082906001600160a01b031661097d565b6000610273858785610ab6565b905061027e81610970565b86546102949082906001600160a01b031661097d565b60028701546102ad9082906001600160a01b031661097d565b83876004018190555060006102c6886005015484610b66565b60058a0181905591506102da905081610970565b87546102f09082906001600160a01b031661097d565b6102fa813361097d565b6002880154885460405163eb3155b560e01b81523360048201526001600160a01b0391821660248201526044810185905291169063eb3155b5906064016020604051808303816000875af1158015610356573d6000803e3d6000fd5b505050506040513d601f19601f8201168201806040525081019061037a9190610e72565b506001880154604051632df5f6bf60e11b8152336004820152602481018590526001600160a01b0390911690635bebed7e906044016020604051808303816000875af11580156103ce573d6000803e3d6000fd5b505050506040513d601f19601f820116820180604052508101906103f29190610e72565b5087546001600160a01b0316600090815260026020526040812080549161041883610e8b565b909155505033600090815260026020526040812080549161043883610e8b565b909155505060405133908d907f4590bb700c0e55964e785d367a632878b699694db2b69ca69e270afa37b8e37290600090a3505050505050505050505050565b60006104838261086a565b80549091506001600160a01b031633146104b957604051634a1233a960e01b815260048101839052336024820152604401610158565b60078101805460ff1916905560048101546104d4813361097d565b6001820154604051632df5f6bf60e11b8152336004820152602481018390526001600160a01b0390911690635bebed7e906044016020604051808303816000875af1158015610527573d6000803e3d6000fd5b505050506040513d601f19601f8201168201806040525081019061054b9190610e72565b50604051339084907f1f51377b3e685a0e2419f9bb4ba7c07ec54936353ba3d0fb3c6538dab676622290600090a3505050565b60006001600160a01b038816158061059d57506001600160a01b038716155b156105bb5760405163c1ab6dc160e01b815260040160405180910390fd5b4282116105da5760405162d36c8560e81b815260040160405180910390fd5b60006105e78686866108f4565b90506105f281610970565b6105fc813361097d565b610606818a61097d565b60405163eb3155b560e01b8152336004820152306024820152604481018290526001600160a01b038a169063eb3155b5906064016020604051808303816000875af1158015610659573d6000803e3d6000fd5b505050506040513d601f19601f8201168201806040525081019061067d9190610e72565b50600061068a6000610a32565b905061069581610970565b61069f813361097d565b6000805490806106ae83610e8b565b919050559250604051806101000160405280336001600160a01b031681526020018b6001600160a01b031681526020018a6001600160a01b03168152602001898152602001838152602001828152602001858152602001600115158152506001600085815260200190815260200160002060008201518160000160006101000a8154816001600160a01b0302191690836001600160a01b0316021790555060208201518160010160006101000a8154816001600160a01b0302191690836001600160a01b0316021790555060408201518160020160006101000a8154816001600160a01b0302191690836001600160a01b03160217905550606082015181600301556080820151816004015560a0820151816005015560c0820151816006015560e08201518160070160006101000a81548160ff021916908315150217905550905050336001600160a01b0316837feeca584035fa6628470e94bb28249556557da8e404821d3ea0bb40a1eec57c308c8c8c8960405161085594939291906001600160a01b0394851681529290931660208301526040820152606081019190915260800190565b60405180910390a35050979650505050505050565b600080548210610890576040516307cddb9360e21b815260048101839052602401610158565b506000818152600160205260409020600781015460ff166108c757604051630e3dde1b60e11b815260048101839052602401610158565b80600601544211156108ef576040516348e57f5f60e01b815260048101839052602401610158565b919050565b6000836108ff610b8d565b6001600160a01b031663d0571e428233878760236040518663ffffffff1660e01b8152600401610933959493929190610eea565b600060405180830381600087803b15801561094d57600080fd5b505af1158015610961573d6000803e3d6000fd5b509293505050505b9392505050565b61097a8130610b9c565b50565b6109878282610b9c565b5050565b600080600080610999610b8d565b6001600160a01b03166386fc3bc36109b2886023610c24565b6109bd886023610c24565b6040516001600160e01b031960e085901b1681526004810192909252602482015260440160408051808303816000875af11580156109ff573d6000803e3d6000fd5b505050506040513d601f19601f82011682018060405250810190610a239190610f42565b909450925050505b9250929050565b6000610a3c610b8d565b60405163d56497c360e01b81526001600160a01b03919091169063d56497c390610a6d908590602390600401610f66565b6020604051808303816000875af1158015610a8c573d6000803e3d6000fd5b505050506040513d601f19601f82011682018060405250810190610ab09190610e72565b92915050565b6000610ac0610b8d565b6001600160a01b031663973ab10b610ad9866000610c24565b610ae4866023610c24565b610aef866023610c24565b6040516001600160e01b031960e086901b1681526004810193909352602483019190915260448201526064016020604051808303816000875af1158015610b3a573d6000803e3d6000fd5b505050506040513d601f19601f82011682018060405250810190610b5e9190610e72565b949350505050565b600080600080610b74610b8d565b6001600160a01b031663f30c42606109b2886023610c24565b6000610b97610c3b565b905090565b610bb08260061a60f81b600160f81b161590565b61098757610bbc610b8d565b604051635ca4b5b160e11b8152600481018490526001600160a01b038381166024830152919091169063b9496b6290604401600060405180830381600087803b158015610c0857600080fd5b505af1158015610c1c573d6000803e3d6000fd5b505050505050565b60008215610c325782610969565b61096982610cd2565b60004661a4b103610c4c5750600090565b4662066eee03610c6f575073d464b198f06756a1d00be223634b85e0a731c22990565b46617a6903610c9157507339847aeba923cc7367d4684194091d022b3f854890565b60405162461bcd60e51b81526020600482015260166024820152752737bc1d102ab739bab83837b93a32b21031b430b4b760511b6044820152606401610158565b60006028826063811115610ce857610ce8610eb2565b60f81b6001600160f81b031916901c60084660e01b6001600160e01b031916901c179050919050565b80356001600160a01b03811681146108ef57600080fd5b600060208284031215610d3a57600080fd5b61096982610d11565b600060208284031215610d5557600080fd5b5035919050565b60008083601f840112610d6e57600080fd5b50813567ffffffffffffffff811115610d8657600080fd5b602083019150836020828501011115610a2b57600080fd5b60008060008060608587031215610db457600080fd5b8435935060208501359250604085013567ffffffffffffffff811115610dd957600080fd5b610de587828801610d5c565b95989497509550505050565b600080600080600080600060c0888a031215610e0c57600080fd5b610e1588610d11565b9650610e2360208901610d11565b95506040880135945060608801359350608088013567ffffffffffffffff811115610e4d57600080fd5b610e598a828b01610d5c565b989b979a5095989497959660a090950135949350505050565b600060208284031215610e8457600080fd5b5051919050565b600060018201610eab57634e487b7160e01b600052601160045260246000fd5b5060010190565b634e487b7160e01b600052602160045260246000fd5b60648110610ee657634e487b7160e01b600052602160045260246000fd5b9052565b8581526001600160a01b03851660208201526080604082018190528101839052828460a0830137600060a08483010152600060a0601f19601f8601168301019050610f386060830184610ec8565b9695505050505050565b60008060408385031215610f5557600080fd5b505080516020909101519092909150565b828152604081016109696020830184610ec856fea26469706673582212207a82934f1175ec20ac53cd2eae78dcf1addfb902e8821dff37780e9cca6cccd764736f6c634300081c0033",
  "linkReferences": {},
  "deployedLinkReferences": {}
}