{
  "_format": "hh-sol-artifact-1",
  "contractName": "WrappedConfidentialToken",
  "sourceName": "contracts/WrappedConfidentialToken.sol",
  "abi": [
    {
      "inputs": [
        {
          "internalType": "contract IERC20",
          "name": "underlying_",
          "type": "address"
        }
      ],
      "stateMutability": "nonpayable",
      "type": "constructor"
    },
    {
      "inputs": [
        {
          "internalType": "address",
          "name": "receiver",
          "type": "address"
        }
      ],
      "name": "ERC7984InvalidReceiver",
      "type": "error"
    },
    {
      "inputs": [
        {
          "internalType": "address",
          "name": "sender",
          "type": "address"
        }
      ],
      "name": "ERC7984InvalidSender",
      "type": "error"
    },
    {
      "inputs": [],
      "name": "ERC7984TotalSupplyOverflow",
      "type": "error"
    },
    {
      "inputs": [
        {
          "internalType": "address",
          "name": "caller",
          "type": "address"
        }
      ],
      "name": "ERC7984UnauthorizedCaller",
      "type": "error"
    },
    {
      "inputs": [
        {
          "internalType": "address",
          "name": "holder",
          "type": "address"
        },
        {
          "internalType": "address",
          "name": "spender",
          "type": "address"
        }
      ],
      "name": "ERC7984UnauthorizedSpender",
      "type": "error"
    },
    {
      "inputs": [
        {
          "internalType": "euint256",
          "name": "amount",
          "type": "bytes32"
        },
        {
          "internalType": "address",
          "name": "user",
          "type": "address"
        }
      ],
      "name": "ERC7984UnauthorizedUseOfEncryptedAmount",
      "type": "error"
    },
    {
      "inputs": [
        {
          "internalType": "address",
          "name": "holder",
          "type": "address"
        }
      ],
      "name": "ERC7984ZeroBalance",
      "type": "error"
    },
    {
      "inputs": [
        {
          "internalType": "euint256",
          "name": "unwrapRequestId",
          "type": "bytes32"
        }
      ],
      "name": "InvalidUnwrapRequest",
      "type": "error"
    },
    {
      "inputs": [
        {
          "internalType": "bytes",
          "name": "data",
          "type": "bytes"
        }
      ],
      "name": "MalformedDecryptedData",
      "type": "error"
    },
    {
      "inputs": [
        {
          "internalType": "address",
          "name": "token",
          "type": "address"
        }
      ],
      "name": "SafeERC20FailedOperation",
      "type": "error"
    },
    {
      "anonymous": false,
      "inputs": [
        {
          "indexed": true,
          "internalType": "address",
          "name": "from",
          "type": "address"
        },
        {
          "indexed": true,
          "internalType": "address",
          "name": "to",
          "type": "address"
        },
        {
          "indexed": true,
          "internalType": "euint256",
          "name": "amount",
          "type": "bytes32"
        }
      ],
      "name": "ConfidentialTransfer",
      "type": "event"
    },
    {
      "anonymous": false,
      "inputs": [
        {
          "indexed": true,
          "internalType": "address",
          "name": "holder",
          "type": "address"
        },
        {
          "indexed": true,
          "internalType": "address",
          "name": "operator",
          "type": "address"
        },
        {
          "indexed": false,
          "internalType": "uint48",
          "name": "until",
          "type": "uint48"
        }
      ],
      "name": "OperatorSet",
      "type": "event"
    },
    {
      "anonymous": false,
      "inputs": [
        {
          "indexed": true,
          "internalType": "address",
          "name": "receiver",
          "type": "address"
        },
        {
          "indexed": false,
          "internalType": "euint256",
          "name": "encryptedAmount",
          "type": "bytes32"
        },
        {
          "indexed": false,
          "internalType": "uint256",
          "name": "plaintextAmount",
          "type": "uint256"
        }
      ],
      "name": "UnwrapFinalized",
      "type": "event"
    },
    {
      "anonymous": false,
      "inputs": [
        {
          "indexed": true,
          "internalType": "address",
          "name": "receiver",
          "type": "address"
        },
        {
          "indexed": false,
          "internalType": "euint256",
          "name": "amount",
          "type": "bytes32"
        }
      ],
      "name": "UnwrapRequested",
      "type": "event"
    },
    {
      "inputs": [
        {
          "internalType": "address",
          "name": "account",
          "type": "address"
        }
      ],
      "name": "confidentialBalanceOf",
      "outputs": [
        {
          "internalType": "euint256",
          "name": "",
          "type": "bytes32"
        }
      ],
      "stateMutability": "view",
      "type": "function"
    },
    {
      "inputs": [],
      "name": "confidentialTotalSupply",
      "outputs": [
        {
          "internalType": "euint256",
          "name": "",
          "type": "bytes32"
        }
      ],
      "stateMutability": "view",
      "type": "function"
    },
    {
      "inputs": [
        {
          "internalType": "address",
          "name": "to",
          "type": "address"
        },
        {
          "internalType": "externalEuint256",
          "name": "encryptedAmount",
          "type": "bytes32"
        },
        {
          "internalType": "bytes",
          "name": "inputProof",
          "type": "bytes"
        }
      ],
      "name": "confidentialTransfer",
      "outputs": [
        {
          "internalType": "euint256",
          "name": "",
          "type": "bytes32"
        }
      ],
      "stateMutability": "nonpayable",
      "type": "function"
    },
    {
      "inputs": [
        {
          "internalType": "address",
          "name": "to",
          "type": "address"
        },
        {
          "internalType": "euint256",
          "name": "amount",
          "type": "bytes32"
        }
      ],
      "name": "confidentialTransfer",
      "outputs": [
        {
          "internalType": "euint256",
          "name": "",
          "type": "bytes32"
        }
      ],
      "stateMutability": "nonpayable",
      "type": "function"
    },
    {
      "inputs": [
        {
          "internalType": "address",
          "name": "to",
          "type": "address"
        },
        {
          "internalType": "euint256",
          "name": "amount",
          "type": "bytes32"
        },
        {
          "internalType": "bytes",
          "name": "data",
          "type": "bytes"
        }
      ],
      "name": "confidentialTransferAndCall",
      "outputs": [
        {
          "internalType": "euint256",
          "name": "transferred",
          "type": "bytes32"
        }
      ],
      "stateMutability": "nonpayable",
      "type": "function"
    },
    {
      "inputs": [
        {
          "internalType": "address",
          "name": "to",
          "type": "address"
        },
        {
          "internalType": "externalEuint256",
          "name": "encryptedAmount",
          "type": "bytes32"
        },
        {
          "internalType": "bytes",
          "name": "inputProof",
          "type": "bytes"
        },
        {
          "internalType": "bytes",
          "name": "data",
          "type": "bytes"
        }
      ],
      "name": "confidentialTransferAndCall",
      "outputs": [
        {
          "internalType": "euint256",
          "name": "transferred",
          "type": "bytes32"
        }
      ],
      "stateMutability": "nonpayable",
      "type": "function"
    },
    {
      "inputs": [
        {
          "internalType": "address",
          "name": "from",
          "type": "address"
        },
        {
          "internalType": "address",
          "name": "to",
          "type": "address"
        },
        {
          "internalType": "externalEuint256",
          "name": "encryptedAmount",
          "type": "bytes32"
        },
        {
          "internalType": "bytes",
          "name": "inputProof",
          "type": "bytes"
        }
      ],
      "name": "confidentialTransferFrom",
      "outputs": [
        {
          "internalType": "euint256",
          "name": "",
          "type": "bytes32"
        }
      ],
      "stateMutability": "nonpayable",
      "type": "function"
    },
    {
      "inputs": [
        {
          "internalType": "address",
          "name": "from",
          "type": "address"
        },
        {
          "internalType": "address",
          "name": "to",
          "type": "address"
        },
        {
          "internalType": "euint256",
          "name": "amount",
          "type": "bytes32"
        }
      ],
      "name": "confidentialTransferFrom",
      "outputs": [
        {
          "internalType": "euint256",
          "name": "",
          "type": "bytes32"
        }
      ],
      "stateMutability": "nonpayable",
      "type": "function"
    },
    {
      "inputs": [
        {
          "internalType": "address",
          "name": "from",
          "type": "address"
        },
        {
          "internalType": "address",
          "name": "to",
          "type": "address"
        },
        {
          "internalType": "externalEuint256",
          "name": "encryptedAmount",
          "type": "bytes32"
        },
        {
          "internalType": "bytes",
          "name": "inputProof",
          "type": "bytes"
        },
        {
          "internalType": "bytes",
          "name": "data",
          "type": "bytes"
        }
      ],
      "name": "confidentialTransferFromAndCall",
      "outputs": [
        {
          "internalType": "euint256",
          "name": "transferred",
          "type": "bytes32"
        }
      ],
      "stateMutability": "nonpayable",
      "type": "function"
    },
    {
      "inputs": [
        {
          "internalType": "address",
          "name": "from",
          "type": "address"
        },
        {
          "internalType": "address",
          "name": "to",
          "type": "address"
        },
        {
          "internalType": "euint256",
          "name": "amount",
          "type": "bytes32"
        },
        {
          "internalType": "bytes",
          "name": "data",
          "type": "bytes"
        }
      ],
      "name": "confidentialTransferFromAndCall",
      "outputs": [
        {
          "internalType": "euint256",
          "name": "transferred",
          "type": "bytes32"
        }
      ],
      "stateMutability": "nonpayable",
      "type": "function"
    },
    {
      "inputs": [],
      "name": "contractURI",
      "outputs": [
        {
          "internalType": "string",
          "name": "",
          "type": "string"
        }
      ],
      "stateMutability": "view",
      "type": "function"
    },
    {
      "inputs": [],
      "name": "decimals",
      "outputs": [
        {
          "internalType": "uint8",
          "name": "",
          "type": "uint8"
        }
      ],
      "stateMutability": "view",
      "type": "function"
    },
    {
      "inputs": [
        {
          "internalType": "euint256",
          "name": "unwrapRequestId",
          "type": "bytes32"
        },
        {
          "internalType": "bytes",
          "name": "decryptedAmountAndProof",
          "type": "bytes"
        }
      ],
      "name": "finalizeUnwrap",
      "outputs": [],
      "stateMutability": "nonpayable",
      "type": "function"
    },
    {
      "inputs": [],
      "name": "inferredTotalSupply",
      "outputs": [
        {
          "internalType": "uint256",
          "name": "",
          "type": "uint256"
        }
      ],
      "stateMutability": "view",
      "type": "function"
    },
    {
      "inputs": [
        {
          "internalType": "address",
          "name": "holder",
          "type": "address"
        },
        {
          "internalType": "address",
          "name": "spender",
          "type": "address"
        }
      ],
      "name": "isOperator",
      "outputs": [
        {
          "internalType": "bool",
          "name": "",
          "type": "bool"
        }
      ],
      "stateMutability": "view",
      "type": "function"
    },
    {
      "inputs": [],
      "name": "maxTotalSupply",
      "outputs": [
        {
          "internalType": "uint256",
          "name": "",
          "type": "uint256"
        }
      ],
      "stateMutability": "view",
      "type": "function"
    },
    {
      "inputs": [],
      "name": "name",
      "outputs": [
        {
          "internalType": "string",
          "name": "",
          "type": "string"
        }
      ],
      "stateMutability": "view",
      "type": "function"
    },
    {
      "inputs": [
        {
          "internalType": "address",
          "name": "",
          "type": "address"
        },
        {
          "internalType": "address",
          "name": "from",
          "type": "address"
        },
        {
          "internalType": "uint256",
          "name": "amount",
          "type": "uint256"
        },
        {
          "internalType": "bytes",
          "name": "data",
          "type": "bytes"
        }
      ],
      "name": "onTransferReceived",
      "outputs": [
        {
          "internalType": "bytes4",
          "name": "",
          "type": "bytes4"
        }
      ],
      "stateMutability": "nonpayable",
      "type": "function"
    },
    {
      "inputs": [
        {
          "internalType": "address",
          "name": "operator",
          "type": "address"
        },
        {
          "internalType": "uint48",
          "name": "until",
          "type": "uint48"
        }
      ],
      "name": "setOperator",
      "outputs": [],
      "stateMutability": "nonpayable",
      "type": "function"
    },
    {
      "inputs": [
        {
          "internalType": "bytes4",
          "name": "interfaceId",
          "type": "bytes4"
        }
      ],
      "name": "supportsInterface",
      "outputs": [
        {
          "internalType": "bool",
          "name": "",
          "type": "bool"
        }
      ],
      "stateMutability": "view",
      "type": "function"
    },
    {
      "inputs": [],
      "name": "symbol",
      "outputs": [
        {
          "internalType": "string",
          "name": "",
          "type": "string"
        }
      ],
      "stateMutability": "view",
      "type": "function"
    },
    {
      "inputs": [],
      "name": "underlying",
      "outputs": [
        {
          "internalType": "address",
          "name": "",
          "type": "address"
        }
      ],
      "stateMutability": "view",
      "type": "function"
    },
    {
      "inputs": [
        {
          "internalType": "address",
          "name": "from",
          "type": "address"
        },
        {
          "internalType": "address",
          "name": "to",
          "type": "address"
        },
        {
          "internalType": "externalEuint256",
          "name": "encryptedAmount",
          "type": "bytes32"
        },
        {
          "internalType": "bytes",
          "name": "inputProof",
          "type": "bytes"
        }
      ],
      "name": "unwrap",
      "outputs": [
        {
          "internalType": "euint256",
          "name": "",
          "type": "bytes32"
        }
      ],
      "stateMutability": "nonpayable",
      "type": "function"
    },
    {
      "inputs": [
        {
          "internalType": "address",
          "name": "from",
          "type": "address"
        },
        {
          "internalType": "address",
          "name": "to",
          "type": "address"
        },
        {
          "internalType": "euint256",
          "name": "amount",
          "type": "bytes32"
        }
      ],
      "name": "unwrap",
      "outputs": [
        {
          "internalType": "euint256",
          "name": "",
          "type": "bytes32"
        }
      ],
      "stateMutability": "nonpayable",
      "type": "function"
    },
    {
      "inputs": [
        {
          "internalType": "euint256",
          "name": "unwrapAmount",
          "type": "bytes32"
        }
      ],
      "name": "unwrapRequester",
      "outputs": [
        {
          "internalType": "address",
          "name": "",
          "type": "address"
        }
      ],
      "stateMutability": "view",
      "type": "function"
    },
    {
      "inputs": [
        {
          "internalType": "address",
          "name": "to",
          "type": "address"
        },
        {
          "internalType": "uint256",
          "name": "amount",
          "type": "uint256"
        }
      ],
      "name": "wrap",
      "outputs": [
        {
          "internalType": "euint256",
          "name": "",
          "type": "bytes32"
        }
      ],
      "stateMutability": "nonpayable",
      "type": "function"
    }
  ],
  "bytecode": "0x60c060405234801561001057600080fd5b5060405161251f38038061251f83398101604081905261002f9161019e565b604080518082018252601a81527f5772617070656420436f6e666964656e7469616c20546f6b656e0000000000006020808301919091528251808401845260078152663bb1aa27a5a2a760c91b81830152835191820190935260008152839290600361009b848261026d565b5060046100a8838261026d565b5060056100b5828261026d565b5050506001600160a01b038216608052506100cf816100dd565b60ff1660a0525061037d9050565b60408051600481526024810182526020810180516001600160e01b031663313ce56760e01b1790529051600091829182916001600160a01b03861691610123919061032b565b600060405180830381855afa9150503d806000811461015e576040519150601f19603f3d011682016040523d82523d6000602084013e610163565b606091505b5091509150818015610176575080516020145b15610197578080602001905181019061018f919061035a565b949350505050565b601261018f565b6000602082840312156101b057600080fd5b81516001600160a01b03811681146101c757600080fd5b9392505050565b634e487b7160e01b600052604160045260246000fd5b600181811c908216806101f857607f821691505b60208210810361021857634e487b7160e01b600052602260045260246000fd5b50919050565b601f82111561026857806000526020600020601f840160051c810160208510156102455750805b601f840160051c820191505b818110156102655760008155600101610251565b50505b505050565b81516001600160401b03811115610286576102866101ce565b61029a8161029484546101e4565b8461021e565b6020601f8211600181146102ce57600083156102b65750848201515b600019600385901b1c1916600184901b178455610265565b600084815260208120601f198516915b828110156102fe57878501518255602094850194600190920191016102de565b508482101561031c5786840151600019600387901b60f8161c191681555b50505050600190811b01905550565b6000825160005b8181101561034c5760208186018101518583015201610332565b506000920191825250919050565b60006020828403121561036c57600080fd5b815160ff811681146101c757600080fd5b60805160a0516121616103be60003960006101fc0152600081816102ba0152818161069f0152818161071d015281816108190152610a7901526121616000f3fe608060405234801561001057600080fd5b506004361061018e5760003560e01c806388a7ca5c116100de578063de64211911610097578063e8c15fd411610071578063e8c15fd4146103a0578063eb3155b5146103b3578063eee8a0e8146103c6578063f89d30b1146103ef57600080fd5b8063de64211914610372578063e064b9bb14610385578063e8a3d4851461039857600080fd5b806388a7ca5c146102f257806395d89b411461031e578063b6363cf214610326578063bf376c7a14610339578063c7b8a75e1461034c578063d4febb961461035f57600080fd5b806334c457431161014b5780635bebed7e116101255780635bebed7e1461027d5780635bf4ef061461029057806365f94fdb146102a35780636f307dc3146102b857600080fd5b806334c457431461024f578063537d3c5014610262578063540952271461027557600080fd5b806301ffc9a71461019357806306fdde03146101bb5780632ab4d052146101d05780632fb74e62146101e2578063313ce567146101f5578063344ff10114610226575b600080fd5b6101a66101a1366004611a0d565b6103f7565b60405190151581526020015b60405180910390f35b6101c361043d565b6040516101b29190611a87565b6000195b6040519081526020016101b2565b6101d46101f0366004611af8565b6104cf565b60405160ff7f00000000000000000000000000000000000000000000000000000000000000001681526020016101b2565b6101d4610234366004611b52565b6001600160a01b031660009081526020819052604090205490565b6101d461025d366004611b6d565b6104f1565b6101d4610270366004611af8565b610566565b6002546101d4565b6101d461028b366004611c0d565b6105c0565b6101d461029e366004611c37565b610613565b6102b66102b1366004611ca6565b610636565b005b7f00000000000000000000000000000000000000000000000000000000000000005b6040516001600160a01b0390911681526020016101b2565b610305610300366004611c37565b610710565b6040516001600160e01b031990911681526020016101b2565b6101c36107af565b6101a6610334366004611cf2565b6107be565b6101d4610347366004611c0d565b610812565b6101d461035a366004611c37565b61085b565b6102b661036d366004611d25565b6108f5565b6101d4610380366004611d67565b610904565b6101d4610393366004611c37565b61092c565b6101c361098c565b6101d46103ae366004611df6565b61099b565b6101d46103c1366004611df6565b6109e7565b6102da6103d4366004611e33565b6000908152600660205260409020546001600160a01b031690565b6101d4610a75565b60006001600160e01b03198216633a0aaebb60e01b148061042857506001600160e01b03198216632229f29760e21b145b80610437575061043782610b07565b92915050565b60606003805461044c90611e4c565b80601f016020809104026020016040519081016040528092919081815260200182805461047890611e4c565b80156104c55780601f1061049a576101008083540402835291602001916104c5565b820191906000526020600020905b8154815290600101906020018083116104a857829003601f168201915b5050505050905090565b60006104e633866104e1878787610b3c565b610bb6565b90505b949350505050565b60006104fd88336107be565b8833909161053657604051630f3e596760e31b81526001600160a01b039283166004820152911660248201526044015b60405180910390fd5b505061054f8888610548898989610b3c565b8686610c2e565b905061055b8133610c89565b979650505050505050565b60006105728433610c93565b843390916105a5576040516367cfe80560e01b815260048101929092526001600160a01b0316602482015260440161052d565b50506105b43386868686610c2e565b90506104e98133610c89565b60006105cc8233610c93565b823390916105ff576040516367cfe80560e01b815260048101929092526001600160a01b0316602482015260440161052d565b505061060c338484610bb6565b9392505050565b600061062a8686610625878787610b3c565b610d10565b90505b95945050505050565b6000838152600660205260409020546001600160a01b03168381610670576040516368b187c760e11b815260040161052d91815260200190565b50600084815260066020526040812080546001600160a01b0319169055610698858585610e3b565b90506106c57f00000000000000000000000000000000000000000000000000000000000000008383610eeb565b60408051868152602081018390526001600160a01b038416917f387ce7199af53be9f77ab809cfadd7a3ba121ba687c4059d4f55a0a4a8d5ecad910160405180910390a25050505050565b6000336001600160a01b037f00000000000000000000000000000000000000000000000000000000000000001681146107685760405163782c6ffd60e01b81526001600160a01b03909116600482015260240161052d565b506000601483106107855761077d8385611e86565b60601c610787565b855b905061079b8161079687610f25565b610fa3565b50632229f29760e21b979650505050505050565b60606004805461044c90611e4c565b6000816001600160a01b0316836001600160a01b0316148061060c5750506001600160a01b03918216600090815260016020908152604080832093909416825291909152205465ffffffffffff1642111590565b60006108407f0000000000000000000000000000000000000000000000000000000000000000333085610fe6565b600061084f8461079685610f25565b905061060c8133610c89565b60006108678433610c93565b8433909161089a576040516367cfe80560e01b815260048101929092526001600160a01b0316602482015260440161052d565b50506108a686336107be565b863390916108da57604051630f3e596760e31b81526001600160a01b0392831660048201529116602482015260440161052d565b50506108e98686868686610c2e565b905061062d8133610c89565b610900338383611022565b5050565b60006109163388610548898989610b3c565b90506109228133610c89565b9695505050505050565b600061093886336107be565b8633909161096c57604051630f3e596760e31b81526001600160a01b0392831660048201529116602482015260440161052d565b5050600061098087876104e1888888610b3c565b905061062a8133610c89565b60606005805461044c90611e4c565b60006109a78233610c93565b823390916109da576040516367cfe80560e01b815260048101929092526001600160a01b0316602482015260440161052d565b50506104e9848484610d10565b60006109f38233610c93565b82339091610a26576040516367cfe80560e01b815260048101929092526001600160a01b0316602482015260440161052d565b5050610a3284336107be565b84339091610a6657604051630f3e596760e31b81526001600160a01b0392831660048201529116602482015260440161052d565b505060006105b4858585610bb6565b60007f00000000000000000000000000000000000000000000000000000000000000006040516370a0823160e01b81523060048201526001600160a01b0391909116906370a0823190602401602060405180830381865afa158015610ade573d6000803e3d6000fd5b505050506040513d601f19601f82011682018060405250810190610b029190611ed3565b905090565b60006001600160e01b031982166312563ca960e21b148061043757506301ffc9a760e01b6001600160e01b0319831614610437565b600083610b4761109a565b6001600160a01b031663d0571e428233878760236040518663ffffffff1660e01b8152600401610b7b959493929190611f4d565b600060405180830381600087803b158015610b9557600080fd5b505af1158015610ba9573d6000803e3d6000fd5b5092979650505050505050565b6000806001600160a01b038516610bec5760405163ee457ebf60e01b81526001600160a01b03909116600482015260240161052d565b5060006001600160a01b038416610c2257604051638d51880160e01b81526001600160a01b03909116600482015260240161052d565b506104e98484846110a4565b600080610c3c878787610bb6565b90506000610c4e3389898589896110c7565b90506000610c70888a610c6b85610c656000610f25565b886111c4565b6110a4565b9050610c7c838261126c565b9998505050505050505050565b6109008282611301565b6000610c9d61109a565b6040516382027b6d60e01b8152600481018590526001600160a01b03848116602483015291909116906382027b6d90604401602060405180830381865afa158015610cec573d6000803e3d6000fd5b505050506040513d601f19601f8201168201806040525081019061060c9190611f87565b6000826001600160a01b038116610d4657604051638d51880160e01b81526001600160a01b03909116600482015260240161052d565b506001600160a01b038416331480610d635750610d6384336107be565b84339091610d9757604051630f3e596760e31b81526001600160a01b0392831660048201529116602482015260440161052d565b50506000610da5858461138a565b9050610db0816113cd565b6000818152600660205260409020546001600160a01b031615610dd557610dd5611fa9565b60008181526006602090815260409182902080546001600160a01b0319166001600160a01b03881690811790915591518381527f77d02d353c5629272875d11f1b34ec4c65d7430b075575b78cd2502034c469ee910160405180910390a2949350505050565b600080610e4661109a565b6001600160a01b0316634dc752ec8686866040518463ffffffff1660e01b8152600401610e7593929190611fbf565b600060405180830381865afa158015610e92573d6000803e3d6000fd5b505050506040513d6000823e601f3d908101601f19168201604052610eba9190810190611fef565b905080516020148190610ee157604051632940888960e21b815260040161052d9190611a87565b5061062d8161209b565b610ef88383836001611437565b610f2057604051635274afe760e01b81526001600160a01b038416600482015260240161052d565b505050565b6000610f2f61109a565b60405163d56497c360e01b81526001600160a01b03919091169063d56497c390610f609085906023906004016120bf565b6020604051808303816000875af1158015610f7f573d6000803e3d6000fd5b505050506040513d601f19601f820116820180604052508101906104379190611ed3565b6000806001600160a01b038416610fd957604051638d51880160e01b81526001600160a01b03909116600482015260240161052d565b5061060c600084846110a4565b610ff484848484600161149d565b61101c57604051635274afe760e01b81526001600160a01b038516600482015260240161052d565b50505050565b6001600160a01b03838116600081815260016020908152604080832094871680845294825291829020805465ffffffffffff191665ffffffffffff871690811790915591519182527f921a218a75d18e8ec5704851e6b234a85725b21a2521ce889622c35dedc1fa12910160405180910390a3505050565b6000610b0261150f565b60006001600160a01b0384166110bc576110bc6115a6565b6104e98484846115d2565b6000846001600160a01b03163b6000036110ec576110e5600161180a565b9050610922565b6040516346083bfd60e01b81526001600160a01b038616906346083bfd90611120908a908a908990899089906004016120d3565b6020604051808303816000875af192505050801561115b575060408051601f3d908101601f1916820190925261115891810190611ed3565b60015b6110e5573d808015611189576040519150601f19603f3d011682016040523d82523d6000602084013e61118e565b606091505b5080516000036111bc57604051638d51880160e01b81526001600160a01b038716600482015260240161052d565b805181602001fd5b60006111ce61109a565b6001600160a01b031663973ab10b6111e7866000611858565b6111f2866023611858565b6111fd866023611858565b6040516001600160e01b031960e086901b1681526004810193909352602483019190915260448201526064016020604051808303816000875af1158015611248573d6000803e3d6000fd5b505050506040513d601f19601f820116820180604052508101906104e99190611ed3565b600061127661109a565b6001600160a01b03166341aa008061128f856023611858565b61129a856023611858565b6040516001600160e01b031960e085901b168152600481019290925260248201526044016020604051808303816000875af11580156112dd573d6000803e3d6000fd5b505050506040513d601f19601f8201168201806040525081019061060c9190611ed3565b6113158260061a60f81b600160f81b161590565b6109005761132161109a565b604051630f8e573b60e21b8152600481018490526001600160a01b0383811660248301529190911690633e395cec906044015b600060405180830381600087803b15801561136e57600080fd5b505af1158015611382573d6000803e3d6000fd5b505050505050565b6000806001600160a01b0384166113c05760405163ee457ebf60e01b81526001600160a01b03909116600482015260240161052d565b5061060c836000846110a4565b6113d561109a565b6001600160a01b03166369c39d90826040518263ffffffff1660e01b815260040161140291815260200190565b600060405180830381600087803b15801561141c57600080fd5b505af1158015611430573d6000803e3d6000fd5b5050505050565b60405163a9059cbb60e01b60008181526001600160a01b038616600452602485905291602083604481808b5af192506001600051148316611491578383151615611484573d6000823e3d81fd5b6000873b113d1516831692505b60405250949350505050565b6040516323b872dd60e01b60008181526001600160a01b038781166004528616602452604485905291602083606481808c5af1925060016000511483166114fd5783831516156114f0573d6000823e3d81fd5b6000883b113d1516831692505b60405250600060605295945050505050565b60004661a4b1036115205750600090565b4662066eee03611543575073d464b198f06756a1d00be223634b85e0a731c22990565b46617a690361156557507339847aeba923cc7367d4684194091d022b3f854890565b60405162461bcd60e51b81526020600482015260166024820152752737bc1d102ab739bab83837b93a32b21031b430b4b760511b604482015260640161052d565b6000196115b1610a75565b11156115d05760405163a9e53fc360e01b815260040160405180910390fd5b565b600080806001600160a01b038616611636576002546115ff576115f5600161180a565b9150839050611623565b61160b6002548561186f565b809250819350505061162082826002546111c4565b90505b61162c81611916565b60028190556116c7565b6001600160a01b038616600090815260208190526040902054868161167a576040516317fe473760e21b81526001600160a01b03909116600482015260240161052d565b506116858186611923565b90935091506116958383836111c4565b91506116a082611916565b6116aa828861194a565b506001600160a01b03861660009081526020819052604090208190555b6116db82856116d66000610f25565b6111c4565b92506001600160a01b03851661170c576116f76002548461126c565b905061170281611916565b6002819055611785565b6001600160a01b038516600090815260208190526040902054611730575081611756565b6001600160a01b0385166000908152602081905260409020546117539084611954565b90505b61175f81611916565b611769818661194a565b6001600160a01b03851660009081526020819052604090208190555b6001600160a01b0386161561179e5761179e838761194a565b6001600160a01b038516156117b7576117b7838661194a565b6117c083611916565b82856001600160a01b0316876001600160a01b03167f67500e8d0ed826d2194f514dd0d8124f35648ab6e3fb5e6ed867134cffe661e960405160405180910390a450509392505050565b600061181461109a565b6001600160a01b031663d56497c38361182e576000611831565b60015b6040516001600160e01b031960e084901b168152610f609160ff16906000906004016120bf565b60008215611866578261060c565b61060c82611977565b60008060008061187d61109a565b6001600160a01b031663f30c4260611896886023611858565b6118a1886023611858565b6040516001600160e01b031960e085901b1681526004810192909252602482015260440160408051808303816000875af11580156118e3573d6000803e3d6000fd5b505050506040513d601f19601f820116820180604052508101906119079190612107565b909450925050505b9250929050565b61192081306119b6565b50565b60008060008061193161109a565b6001600160a01b03166386fc3bc3611896886023611858565b61090082826119b6565b600061195e61109a565b6001600160a01b031663d1de592a61128f856023611858565b6000602882606381111561198d5761198d611f15565b60f81b6001600160f81b031916901c60084660e01b6001600160e01b031916901c179050919050565b6119ca8260061a60f81b600160f81b161590565b610900576119d661109a565b604051635ca4b5b160e11b8152600481018490526001600160a01b038381166024830152919091169063b9496b6290604401611354565b600060208284031215611a1f57600080fd5b81356001600160e01b03198116811461060c57600080fd5b60005b83811015611a52578181015183820152602001611a3a565b50506000910152565b60008151808452611a73816020860160208601611a37565b601f01601f19169290920160200192915050565b60208152600061060c6020830184611a5b565b80356001600160a01b0381168114611ab157600080fd5b919050565b60008083601f840112611ac857600080fd5b50813567ffffffffffffffff811115611ae057600080fd5b60208301915083602082850101111561190f57600080fd5b60008060008060608587031215611b0e57600080fd5b611b1785611a9a565b935060208501359250604085013567ffffffffffffffff811115611b3a57600080fd5b611b4687828801611ab6565b95989497509550505050565b600060208284031215611b6457600080fd5b61060c82611a9a565b600080600080600080600060a0888a031215611b8857600080fd5b611b9188611a9a565b9650611b9f60208901611a9a565b955060408801359450606088013567ffffffffffffffff811115611bc257600080fd5b611bce8a828b01611ab6565b909550935050608088013567ffffffffffffffff811115611bee57600080fd5b611bfa8a828b01611ab6565b989b979a50959850939692959293505050565b60008060408385031215611c2057600080fd5b611c2983611a9a565b946020939093013593505050565b600080600080600060808688031215611c4f57600080fd5b611c5886611a9a565b9450611c6660208701611a9a565b935060408601359250606086013567ffffffffffffffff811115611c8957600080fd5b611c9588828901611ab6565b969995985093965092949392505050565b600080600060408486031215611cbb57600080fd5b83359250602084013567ffffffffffffffff811115611cd957600080fd5b611ce586828701611ab6565b9497909650939450505050565b60008060408385031215611d0557600080fd5b611d0e83611a9a565b9150611d1c60208401611a9a565b90509250929050565b60008060408385031215611d3857600080fd5b611d4183611a9a565b9150602083013565ffffffffffff81168114611d5c57600080fd5b809150509250929050565b60008060008060008060808789031215611d8057600080fd5b611d8987611a9a565b955060208701359450604087013567ffffffffffffffff811115611dac57600080fd5b611db889828a01611ab6565b909550935050606087013567ffffffffffffffff811115611dd857600080fd5b611de489828a01611ab6565b979a9699509497509295939492505050565b600080600060608486031215611e0b57600080fd5b611e1484611a9a565b9250611e2260208501611a9a565b929592945050506040919091013590565b600060208284031215611e4557600080fd5b5035919050565b600181811c90821680611e6057607f821691505b602082108103611e8057634e487b7160e01b600052602260045260246000fd5b50919050565b80356bffffffffffffffffffffffff198116906014841015611ecc576bffffffffffffffffffffffff196bffffffffffffffffffffffff198560140360031b1b82161691505b5092915050565b600060208284031215611ee557600080fd5b5051919050565b81835281816020850137506000828201602090810191909152601f909101601f19169091010190565b634e487b7160e01b600052602160045260246000fd5b60648110611f4957634e487b7160e01b600052602160045260246000fd5b9052565b8581526001600160a01b0385166020820152608060408201819052600090611f789083018587611eec565b90506109226060830184611f2b565b600060208284031215611f9957600080fd5b8151801515811461060c57600080fd5b634e487b7160e01b600052600160045260246000fd5b8381526040602082015260006104e6604083018486611eec565b634e487b7160e01b600052604160045260246000fd5b60006020828403121561200157600080fd5b815167ffffffffffffffff81111561201857600080fd5b8201601f8101841361202957600080fd5b805167ffffffffffffffff81111561204357612043611fd9565b604051601f8201601f19908116603f0116810167ffffffffffffffff8111828210171561207257612072611fd9565b60405281815282820160200186101561208a57600080fd5b61062d826020830160208601611a37565b80516020808301519190811015611e805760001960209190910360031b1b16919050565b8281526040810161060c6020830184611f2b565b6001600160a01b038681168252851660208201526040810184905260806060820181905260009061055b9083018486611eec565b6000806040838503121561211a57600080fd5b50508051602090910151909290915056fea2646970667358221220c701d9738133b18ff2c0fc03e346010b37c5feaa9c95e4d78779592b4351455e64736f6c634300081c0033",
  "linkReferences": {},
  "deployedLinkReferences": {}
}